{
  "abi": [
    {
      "type": "constructor",
      "inputs": [
        {
          "name": "_merkleRoot",
          "type": "bytes32",
          "internalType": "bytes32"
        },
        {
          "name": "_initialShipIdToMint",
          "type": "uint256",
          "internalType": "uint256"
        },
        {
          "name": "_mintPrice",
          "type": "uint256",
          "internalType": "uint256"
        },
        {
          "name": "_defaultAdmin",
          "type": "address",
          "internalType": "address"
        },
        {
          "name": "_verifier",
          "type": "address",
          "internalType": "address"
        }
      ],
      "stateMutability": "nonpayable"
    },
    {
      "type": "function",
      "name": "DEFAULT_ADMIN_ROLE",
      "inputs": [],
      "outputs": [
        {
          "name": "",
          "type": "bytes32",
          "internalType": "bytes32"
        }
      ],
      "stateMutability": "view"
    },
    {
      "type": "function",
      "name": "MAINTENANCE_ROLE",
      "inputs": [],
      "outputs": [
        {
          "name": "",
          "type": "bytes32",
          "internalType": "bytes32"
        }
      ],
      "stateMutability": "view"
    },
    {
      "type": "function",
      "name": "approve",
      "inputs": [
        {
          "name": "to",
          "type": "address",
          "internalType": "address"
        },
        {
          "name": "tokenId",
          "type": "uint256",
          "internalType": "uint256"
        }
      ],
      "outputs": [],
      "stateMutability": "nonpayable"
    },
    {
      "type": "function",
      "name": "attributes",
      "inputs": [
        {
          "name": "",
          "type": "uint256",
          "internalType": "uint256"
        }
      ],
      "outputs": [
        {
          "name": "",
          "type": "uint256",
          "internalType": "uint256"
        }
      ],
      "stateMutability": "view"
    },
    {
      "type": "function",
      "name": "balanceOf",
      "inputs": [
        {
          "name": "owner",
          "type": "address",
          "internalType": "address"
        }
      ],
      "outputs": [
        {
          "name": "",
          "type": "uint256",
          "internalType": "uint256"
        }
      ],
      "stateMutability": "view"
    },
    {
      "type": "function",
      "name": "batchMint",
      "inputs": [
        {
          "name": "_attributes",
          "type": "uint256[]",
          "internalType": "uint256[]"
        },
        {
          "name": "_proofs",
          "type": "bytes32[][]",
          "internalType": "bytes32[][]"
        },
        {
          "name": "_count",
          "type": "uint256",
          "internalType": "uint256"
        }
      ],
      "outputs": [],
      "stateMutability": "payable"
    },
    {
      "type": "function",
      "name": "decodeAttributes",
      "inputs": [
        {
          "name": "encoded",
          "type": "uint256",
          "internalType": "uint256"
        }
      ],
      "outputs": [
        {
          "name": "capacity",
          "type": "uint256",
          "internalType": "uint256"
        },
        {
          "name": "attack",
          "type": "uint256",
          "internalType": "uint256"
        },
        {
          "name": "speed",
          "type": "uint256",
          "internalType": "uint256"
        },
        {
          "name": "shield",
          "type": "uint256",
          "internalType": "uint256"
        }
      ],
      "stateMutability": "pure"
    },
    {
      "type": "function",
      "name": "encodeAttributes",
      "inputs": [
        {
          "name": "capacity",
          "type": "uint256",
          "internalType": "uint256"
        },
        {
          "name": "attack",
          "type": "uint256",
          "internalType": "uint256"
        },
        {
          "name": "speed",
          "type": "uint256",
          "internalType": "uint256"
        },
        {
          "name": "shield",
          "type": "uint256",
          "internalType": "uint256"
        }
      ],
      "outputs": [
        {
          "name": "encoded",
          "type": "uint256",
          "internalType": "uint256"
        }
      ],
      "stateMutability": "pure"
    },
    {
      "type": "function",
      "name": "getApproved",
      "inputs": [
        {
          "name": "tokenId",
          "type": "uint256",
          "internalType": "uint256"
        }
      ],
      "outputs": [
        {
          "name": "",
          "type": "address",
          "internalType": "address"
        }
      ],
      "stateMutability": "view"
    },
    {
      "type": "function",
      "name": "getRoleAdmin",
      "inputs": [
        {
          "name": "role",
          "type": "bytes32",
          "internalType": "bytes32"
        }
      ],
      "outputs": [
        {
          "name": "",
          "type": "bytes32",
          "internalType": "bytes32"
        }
      ],
      "stateMutability": "view"
    },
    {
      "type": "function",
      "name": "grantRole",
      "inputs": [
        {
          "name": "role",
          "type": "bytes32",
          "internalType": "bytes32"
        },
        {
          "name": "account",
          "type": "address",
          "internalType": "address"
        }
      ],
      "outputs": [],
      "stateMutability": "nonpayable"
    },
    {
      "type": "function",
      "name": "hasRole",
      "inputs": [
        {
          "name": "role",
          "type": "bytes32",
          "internalType": "bytes32"
        },
        {
          "name": "account",
          "type": "address",
          "internalType": "address"
        }
      ],
      "outputs": [
        {
          "name": "",
          "type": "bool",
          "internalType": "bool"
        }
      ],
      "stateMutability": "view"
    },
    {
      "type": "function",
      "name": "isApprovedForAll",
      "inputs": [
        {
          "name": "owner",
          "type": "address",
          "internalType": "address"
        },
        {
          "name": "operator",
          "type": "address",
          "internalType": "address"
        }
      ],
      "outputs": [
        {
          "name": "",
          "type": "bool",
          "internalType": "bool"
        }
      ],
      "stateMutability": "view"
    },
    {
      "type": "function",
      "name": "maintenance",
      "inputs": [
        {
          "name": "tokenId",
          "type": "uint256",
          "internalType": "uint256"
        },
        {
          "name": "_newAttribute",
          "type": "uint256",
          "internalType": "uint256"
        }
      ],
      "outputs": [],
      "stateMutability": "nonpayable"
    },
    {
      "type": "function",
      "name": "merkleRoot",
      "inputs": [],
      "outputs": [
        {
          "name": "",
          "type": "bytes32",
          "internalType": "bytes32"
        }
      ],
      "stateMutability": "view"
    },
    {
      "type": "function",
      "name": "mint",
      "inputs": [
        {
          "name": "_attributes",
          "type": "uint256",
          "internalType": "uint256"
        },
        {
          "name": "_proof",
          "type": "bytes32[]",
          "internalType": "bytes32[]"
        }
      ],
      "outputs": [],
      "stateMutability": "payable"
    },
    {
      "type": "function",
      "name": "mintPrice",
      "inputs": [],
      "outputs": [
        {
          "name": "",
          "type": "uint256",
          "internalType": "uint256"
        }
      ],
      "stateMutability": "view"
    },
    {
      "type": "function",
      "name": "name",
      "inputs": [],
      "outputs": [
        {
          "name": "",
          "type": "string",
          "internalType": "string"
        }
      ],
      "stateMutability": "view"
    },
    {
      "type": "function",
      "name": "nextTokenIdToMint",
      "inputs": [],
      "outputs": [
        {
          "name": "",
          "type": "uint256",
          "internalType": "uint256"
        }
      ],
      "stateMutability": "view"
    },
    {
      "type": "function",
      "name": "ownerOf",
      "inputs": [
        {
          "name": "tokenId",
          "type": "uint256",
          "internalType": "uint256"
        }
      ],
      "outputs": [
        {
          "name": "",
          "type": "address",
          "internalType": "address"
        }
      ],
      "stateMutability": "view"
    },
    {
      "type": "function",
      "name": "renounceRole",
      "inputs": [
        {
          "name": "role",
          "type": "bytes32",
          "internalType": "bytes32"
        },
        {
          "name": "account",
          "type": "address",
          "internalType": "address"
        }
      ],
      "outputs": [],
      "stateMutability": "nonpayable"
    },
    {
      "type": "function",
      "name": "revokeRole",
      "inputs": [
        {
          "name": "role",
          "type": "bytes32",
          "internalType": "bytes32"
        },
        {
          "name": "account",
          "type": "address",
          "internalType": "address"
        }
      ],
      "outputs": [],
      "stateMutability": "nonpayable"
    },
    {
      "type": "function",
      "name": "safeTransferFrom",
      "inputs": [
        {
          "name": "from",
          "type": "address",
          "internalType": "address"
        },
        {
          "name": "to",
          "type": "address",
          "internalType": "address"
        },
        {
          "name": "tokenId",
          "type": "uint256",
          "internalType": "uint256"
        }
      ],
      "outputs": [],
      "stateMutability": "nonpayable"
    },
    {
      "type": "function",
      "name": "safeTransferFrom",
      "inputs": [
        {
          "name": "from",
          "type": "address",
          "internalType": "address"
        },
        {
          "name": "to",
          "type": "address",
          "internalType": "address"
        },
        {
          "name": "tokenId",
          "type": "uint256",
          "internalType": "uint256"
        },
        {
          "name": "data",
          "type": "bytes",
          "internalType": "bytes"
        }
      ],
      "outputs": [],
      "stateMutability": "nonpayable"
    },
    {
      "type": "function",
      "name": "setApprovalForAll",
      "inputs": [
        {
          "name": "operator",
          "type": "address",
          "internalType": "address"
        },
        {
          "name": "approved",
          "type": "bool",
          "internalType": "bool"
        }
      ],
      "outputs": [],
      "stateMutability": "nonpayable"
    },
    {
      "type": "function",
      "name": "supportsInterface",
      "inputs": [
        {
          "name": "interfaceId",
          "type": "bytes4",
          "internalType": "bytes4"
        }
      ],
      "outputs": [
        {
          "name": "",
          "type": "bool",
          "internalType": "bool"
        }
      ],
      "stateMutability": "view"
    },
    {
      "type": "function",
      "name": "symbol",
      "inputs": [],
      "outputs": [
        {
          "name": "",
          "type": "string",
          "internalType": "string"
        }
      ],
      "stateMutability": "view"
    },
    {
      "type": "function",
      "name": "tokenByIndex",
      "inputs": [
        {
          "name": "index",
          "type": "uint256",
          "internalType": "uint256"
        }
      ],
      "outputs": [
        {
          "name": "",
          "type": "uint256",
          "internalType": "uint256"
        }
      ],
      "stateMutability": "view"
    },
    {
      "type": "function",
      "name": "tokenOfOwnerByIndex",
      "inputs": [
        {
          "name": "owner",
          "type": "address",
          "internalType": "address"
        },
        {
          "name": "index",
          "type": "uint256",
          "internalType": "uint256"
        }
      ],
      "outputs": [
        {
          "name": "",
          "type": "uint256",
          "internalType": "uint256"
        }
      ],
      "stateMutability": "view"
    },
    {
      "type": "function",
      "name": "tokenURI",
      "inputs": [
        {
          "name": "tokenId",
          "type": "uint256",
          "internalType": "uint256"
        }
      ],
      "outputs": [
        {
          "name": "",
          "type": "string",
          "internalType": "string"
        }
      ],
      "stateMutability": "view"
    },
    {
      "type": "function",
      "name": "totalSupply",
      "inputs": [],
      "outputs": [
        {
          "name": "",
          "type": "uint256",
          "internalType": "uint256"
        }
      ],
      "stateMutability": "view"
    },
    {
      "type": "function",
      "name": "transferFrom",
      "inputs": [
        {
          "name": "from",
          "type": "address",
          "internalType": "address"
        },
        {
          "name": "to",
          "type": "address",
          "internalType": "address"
        },
        {
          "name": "tokenId",
          "type": "uint256",
          "internalType": "uint256"
        }
      ],
      "outputs": [],
      "stateMutability": "nonpayable"
    },
    {
      "type": "function",
      "name": "updateMerkleRoot",
      "inputs": [
        {
          "name": "_newRoot",
          "type": "bytes32",
          "internalType": "bytes32"
        }
      ],
      "outputs": [],
      "stateMutability": "nonpayable"
    },
    {
      "type": "function",
      "name": "updateMintPrice",
      "inputs": [
        {
          "name": "_newPrice",
          "type": "uint256",
          "internalType": "uint256"
        }
      ],
      "outputs": [],
      "stateMutability": "nonpayable"
    },
    {
      "type": "function",
      "name": "verifier",
      "inputs": [],
      "outputs": [
        {
          "name": "",
          "type": "address",
          "internalType": "contract IAttributeVerifier"
        }
      ],
      "stateMutability": "view"
    },
    {
      "type": "event",
      "name": "Approval",
      "inputs": [
        {
          "name": "owner",
          "type": "address",
          "indexed": true,
          "internalType": "address"
        },
        {
          "name": "approved",
          "type": "address",
          "indexed": true,
          "internalType": "address"
        },
        {
          "name": "tokenId",
          "type": "uint256",
          "indexed": true,
          "internalType": "uint256"
        }
      ],
      "anonymous": false
    },
    {
      "type": "event",
      "name": "ApprovalForAll",
      "inputs": [
        {
          "name": "owner",
          "type": "address",
          "indexed": true,
          "internalType": "address"
        },
        {
          "name": "operator",
          "type": "address",
          "indexed": true,
          "internalType": "address"
        },
        {
          "name": "approved",
          "type": "bool",
          "indexed": false,
          "internalType": "bool"
        }
      ],
      "anonymous": false
    },
    {
      "type": "event",
      "name": "Minted",
      "inputs": [
        {
          "name": "minter",
          "type": "address",
          "indexed": false,
          "internalType": "address"
        },
        {
          "name": "tokenId",
          "type": "uint256",
          "indexed": false,
          "internalType": "uint256"
        }
      ],
      "anonymous": false
    },
    {
      "type": "event",
      "name": "RoleAdminChanged",
      "inputs": [
        {
          "name": "role",
          "type": "bytes32",
          "indexed": true,
          "internalType": "bytes32"
        },
        {
          "name": "previousAdminRole",
          "type": "bytes32",
          "indexed": true,
          "internalType": "bytes32"
        },
        {
          "name": "newAdminRole",
          "type": "bytes32",
          "indexed": true,
          "internalType": "bytes32"
        }
      ],
      "anonymous": false
    },
    {
      "type": "event",
      "name": "RoleGranted",
      "inputs": [
        {
          "name": "role",
          "type": "bytes32",
          "indexed": true,
          "internalType": "bytes32"
        },
        {
          "name": "account",
          "type": "address",
          "indexed": true,
          "internalType": "address"
        },
        {
          "name": "sender",
          "type": "address",
          "indexed": true,
          "internalType": "address"
        }
      ],
      "anonymous": false
    },
    {
      "type": "event",
      "name": "RoleRevoked",
      "inputs": [
        {
          "name": "role",
          "type": "bytes32",
          "indexed": true,
          "internalType": "bytes32"
        },
        {
          "name": "account",
          "type": "address",
          "indexed": true,
          "internalType": "address"
        },
        {
          "name": "sender",
          "type": "address",
          "indexed": true,
          "internalType": "address"
        }
      ],
      "anonymous": false
    },
    {
      "type": "event",
      "name": "Transfer",
      "inputs": [
        {
          "name": "from",
          "type": "address",
          "indexed": true,
          "internalType": "address"
        },
        {
          "name": "to",
          "type": "address",
          "indexed": true,
          "internalType": "address"
        },
        {
          "name": "tokenId",
          "type": "uint256",
          "indexed": true,
          "internalType": "uint256"
        }
      ],
      "anonymous": false
    }
  ],
  "bytecode": {
    "object": "0x608060405234801561001057600080fd5b50604051612cbc380380612cbc83398101604081905261002f91610198565b6040518060400160405280600a815260200169436f736d6f536869707360b01b815250604051806040016040528060048152602001634353535360e01b815250816000908161007e9190610288565b50600161008b8282610288565b5050600160075550600c859055600e8390556100a86000836100d9565b600f80546001600160a01b0319166001600160a01b038316179055836100cd57600193505b505050600d5550610346565b60008281526006602090815260408083206001600160a01b038516845290915290205460ff166101785760008281526006602090815260408083206001600160a01b03851684529091529020805460ff191660011790556101373390565b6001600160a01b0316816001600160a01b0316837f2f8788117e7eff1d82e926ec794901d17c78024a50270940304540a733656f0d60405160405180910390a45b5050565b80516001600160a01b038116811461019357600080fd5b919050565b600080600080600060a086880312156101b057600080fd5b855160208701516040880151919650945092506101cf6060870161017c565b91506101dd6080870161017c565b90509295509295909350565b634e487b7160e01b600052604160045260246000fd5b600181811c9082168061021357607f821691505b60208210810361023357634e487b7160e01b600052602260045260246000fd5b50919050565b601f82111561028357806000526020600020601f840160051c810160208510156102605750805b601f840160051c820191505b81811015610280576000815560010161026c565b50505b505050565b81516001600160401b038111156102a1576102a16101e9565b6102b5816102af84546101ff565b84610239565b6020601f8211600181146102e957600083156102d15750848201515b600019600385901b1c1916600184901b178455610280565b600084815260208120601f198516915b8281101561031957878501518255602094850194600190920191016102f9565b50848210156103375786840151600019600387901b60f8161c191681555b50505050600190811b01905550565b612967806103556000396000f3fe6080604052600436106102035760003560e01c80634649481311610118578063a22cb465116100a0578063bda222501161006f578063bda22250146105ee578063c87b56dd1461060e578063d05dcc6a1461062e578063d547741f1461065b578063e985e9c51461067b57600080fd5b8063a22cb46514610588578063b88d4fde146105a8578063ba41b0c6146105c8578063bd1b3b49146105db57600080fd5b80636817c76c116100e75780636817c76c1461050857806370a082311461051e57806391d148541461053e57806395d89b411461055e578063a217fddf1461057357600080fd5b806346494813146104685780634783f0ef146104a85780634f6ccce7146104c85780636352211e146104e857600080fd5b806323b872dd1161019b5780632f2ff15d1161016a5780632f2ff15d146103d25780632f745c59146103f257806336568abe146104125780633b1475a71461043257806342842e0e1461044857600080fd5b806323b872dd1461034c578063248a9ca31461036c5780632b7ac3f31461039c5780632eb4a7ab146103bc57600080fd5b80630863e9fa116101d75780630863e9fa146102b9578063095ea7b3146102d957806318160ddd146102f95780631dec5e071461031857600080fd5b8062728e461461020857806301ffc9a71461022a57806306fdde031461025f578063081812fc14610281575b600080fd5b34801561021457600080fd5b50610228610223366004612135565b6106c4565b005b34801561023657600080fd5b5061024a610245366004612164565b6106d5565b60405190151581526020015b60405180910390f35b34801561026b57600080fd5b50610274610704565b60405161025691906121d1565b34801561028d57600080fd5b506102a161029c366004612135565b610796565b6040516001600160a01b039091168152602001610256565b3480156102c557600080fd5b506102286102d43660046121e4565b6107bd565b3480156102e557600080fd5b506102286102f4366004612222565b6107fa565b34801561030557600080fd5b50600a545b604051908152602001610256565b34801561032457600080fd5b5061030a7fb06fd1d7ac3cc9ad93e77413fab9fcd3bbd887f5685e519e34e0e80802d074ee81565b34801561035857600080fd5b5061022861036736600461224c565b610914565b34801561037857600080fd5b5061030a610387366004612135565b60009081526006602052604090206001015490565b3480156103a857600080fd5b50600f546102a1906001600160a01b031681565b3480156103c857600080fd5b5061030a600c5481565b3480156103de57600080fd5b506102286103ed366004612289565b610945565b3480156103fe57600080fd5b5061030a61040d366004612222565b61096a565b34801561041e57600080fd5b5061022861042d366004612289565b610a00565b34801561043e57600080fd5b5061030a600d5481565b34801561045457600080fd5b5061022861046336600461224c565b610a7e565b34801561047457600080fd5b50610488610483366004612135565b610a99565b604080519485526020850193909352918301526060820152608001610256565b3480156104b457600080fd5b506102286104c3366004612135565b610af1565b3480156104d457600080fd5b5061030a6104e3366004612135565b610b02565b3480156104f457600080fd5b506102a1610503366004612135565b610b95565b34801561051457600080fd5b5061030a600e5481565b34801561052a57600080fd5b5061030a6105393660046122b5565b610bf5565b34801561054a57600080fd5b5061024a610559366004612289565b610c7b565b34801561056a57600080fd5b50610274610ca6565b34801561057f57600080fd5b5061030a600081565b34801561059457600080fd5b506102286105a33660046122de565b610cb5565b3480156105b457600080fd5b506102286105c336600461232b565b610cc0565b6102286105d636600461245b565b610cf8565b6102286105e93660046124a7565b610e83565b3480156105fa57600080fd5b5061030a610609366004612520565b6110df565b34801561061a57600080fd5b50610274610629366004612135565b6111bd565b34801561063a57600080fd5b5061030a610649366004612135565b60106020526000908152604090205481565b34801561066757600080fd5b50610228610676366004612289565b611231565b34801561068757600080fd5b5061024a610696366004612552565b6001600160a01b03918216600090815260056020908152604080832093909416825291909152205460ff1690565b60006106cf81611256565b50600e55565b60006106e082611263565b806106ef57506106ef826112b3565b806106fe57506106fe826112b3565b92915050565b6060600080546107139061257c565b80601f016020809104026020016040519081016040528092919081815260200182805461073f9061257c565b801561078c5780601f106107615761010080835404028352916020019161078c565b820191906000526020600020905b81548152906001019060200180831161076f57829003601f168201915b5050505050905090565b60006107a1826112d8565b506000908152600460205260409020546001600160a01b031690565b7fb06fd1d7ac3cc9ad93e77413fab9fcd3bbd887f5685e519e34e0e80802d074ee6107e781611256565b5060009182526010602052604090912055565b600061080582610b95565b9050806001600160a01b0316836001600160a01b0316036108775760405162461bcd60e51b815260206004820152602160248201527f4552433732313a20617070726f76616c20746f2063757272656e74206f776e656044820152603960f91b60648201526084015b60405180910390fd5b336001600160a01b038216148061089357506108938133610696565b6109055760405162461bcd60e51b815260206004820152603d60248201527f4552433732313a20617070726f76652063616c6c6572206973206e6f7420746f60448201527f6b656e206f776e6572206f7220617070726f76656420666f7220616c6c000000606482015260840161086e565b61090f8383611337565b505050565b61091e33826113a5565b61093a5760405162461bcd60e51b815260040161086e906125b6565b61090f838383611423565b60008281526006602052604090206001015461096081611256565b61090f8383611594565b600061097583610bf5565b82106109d75760405162461bcd60e51b815260206004820152602b60248201527f455243373231456e756d657261626c653a206f776e657220696e646578206f7560448201526a74206f6620626f756e647360a81b606482015260840161086e565b506001600160a01b03919091166000908152600860209081526040808320938352929052205490565b6001600160a01b0381163314610a705760405162461bcd60e51b815260206004820152602f60248201527f416363657373436f6e74726f6c3a2063616e206f6e6c792072656e6f756e636560448201526e103937b632b9903337b91039b2b63360891b606482015260840161086e565b610a7a828261161a565b5050565b61090f83838360405180602001604052806000815250610cc0565b6000808080610ab0600f600c87901c166002612619565b9350610ac4600f600887901c166002612619565b9250610ad8600f600487901c166002612619565b9150610ae8600f86166002612619565b90509193509193565b6000610afc81611256565b50600c55565b6000610b0d600a5490565b8210610b705760405162461bcd60e51b815260206004820152602c60248201527f455243373231456e756d657261626c653a20676c6f62616c20696e646578206f60448201526b7574206f6620626f756e647360a01b606482015260840161086e565b600a8281548110610b8357610b8361262c565b90600052602060002001549050919050565b6000818152600260205260408120546001600160a01b0316806106fe5760405162461bcd60e51b8152602060048201526018602482015277115490cdcc8c4e881a5b9d985b1a59081d1bdad95b88125160421b604482015260640161086e565b60006001600160a01b038216610c5f5760405162461bcd60e51b815260206004820152602960248201527f4552433732313a2061646472657373207a65726f206973206e6f7420612076616044820152683634b21037bbb732b960b91b606482015260840161086e565b506001600160a01b031660009081526003602052604090205490565b60009182526006602090815260408084206001600160a01b0393909316845291905290205460ff1690565b6060600180546107139061257c565b610a7a338383611681565b610cca33836113a5565b610ce65760405162461bcd60e51b815260040161086e906125b6565b610cf28484848461174f565b50505050565b610d00611782565b600e543414610d4a5760405162461bcd60e51b8152602060048201526016602482015275125b98dbdc9c9958dd081c185e5b595b9d081cd95b9d60521b604482015260640161086e565b600f54600c54600d54604051638bb9286360e01b81526001600160a01b0390931692638bb9286392610d86929091879187918a90600401612642565b602060405180830381865afa158015610da3573d6000803e3d6000fd5b505050506040513d601f19601f82011682018060405250810190610dc79190612690565b610e035760405162461bcd60e51b815260206004820152600d60248201526c24b73b30b634b210383937b7b360991b604482015260640161086e565b600d8054600090815260106020526040902084905554610e249033906117db565b600d546040805133815260208101929092527f30385c845b448a36257a6a1716e6ad2e1bc2cbe333cde1e69fe849ad6511adfe910160405180910390a16001600d6000828254610e749190612619565b90915550506001600755505050565b610e8b611782565b8381148015610e9957508181145b610edd5760405162461bcd60e51b8152602060048201526015602482015274496e76616c696420696e707574206c656e6774687360581b604482015260640161086e565b80600e54610eeb91906126ad565b3414610f325760405162461bcd60e51b8152602060048201526016602482015275125b98dbdc9c9958dd081c185e5b595b9d081cd95b9d60521b604482015260640161086e565b60005b818110156110cd57600f54600c546001600160a01b0390911690638bb9286390868685818110610f6757610f6761262c565b9050602002810190610f7991906126c4565b600d548b8b88818110610f8e57610f8e61262c565b905060200201356040518663ffffffff1660e01b8152600401610fb5959493929190612642565b602060405180830381865afa158015610fd2573d6000803e3d6000fd5b505050506040513d601f19601f82011682018060405250810190610ff69190612690565b6110325760405162461bcd60e51b815260206004820152600d60248201526c24b73b30b634b210383937b7b360991b604482015260640161086e565b8585828181106110445761104461262c565b9050602002013560106000600d5481526020019081526020016000208190555061107033600d546117db565b600d546040805133815260208101929092527f30385c845b448a36257a6a1716e6ad2e1bc2cbe333cde1e69fe849ad6511adfe910160405180910390a16001600d60008282546110c09190612619565b9091555050600101610f35565b506110d86001600755565b5050505050565b60006110ea856117f5565b6111065760405162461bcd60e51b815260040161086e9061270e565b61110f846117f5565b61112b5760405162461bcd60e51b815260040161086e9061270e565b611134836117f5565b6111505760405162461bcd60e51b815260040161086e9061270e565b611159826117f5565b6111755760405162461bcd60e51b815260040161086e9061270e565b506000600c61118560028761275c565b901b17600861119560028661275c565b901b1760046111a560028561275c565b901b176111b360028361275c565b175b949350505050565b60606111c8826112d8565b60006111df60408051602081019091526000815290565b905060008151116111ff576040518060200160405280600081525061122a565b806112098461180b565b60405160200161121a92919061276f565b6040516020818303038152906040525b9392505050565b60008281526006602052604090206001015461124c81611256565b61090f838361161a565b611260813361189e565b50565b60006001600160e01b031982166380ac58cd60e01b148061129457506001600160e01b03198216635b5e139f60e01b145b806106fe57506301ffc9a760e01b6001600160e01b03198316146106fe565b60006001600160e01b0319821663780e9d6360e01b14806106fe57506106fe826118f7565b6000818152600260205260409020546001600160a01b03166112605760405162461bcd60e51b8152602060048201526018602482015277115490cdcc8c4e881a5b9d985b1a59081d1bdad95b88125160421b604482015260640161086e565b600081815260046020526040902080546001600160a01b0319166001600160a01b038416908117909155819061136c82610b95565b6001600160a01b03167f8c5be1e5ebec7d5bd14f71427d1e84f3dd0314c0f7b2291e5b200ac8c7c3b92560405160405180910390a45050565b6000806113b183610b95565b9050806001600160a01b0316846001600160a01b031614806113f857506001600160a01b0380821660009081526005602090815260408083209388168352929052205460ff165b806111b55750836001600160a01b031661141184610796565b6001600160a01b031614949350505050565b826001600160a01b031661143682610b95565b6001600160a01b03161461145c5760405162461bcd60e51b815260040161086e9061279e565b6001600160a01b0382166114be5760405162461bcd60e51b8152602060048201526024808201527f4552433732313a207472616e7366657220746f20746865207a65726f206164646044820152637265737360e01b606482015260840161086e565b6114cb838383600161191c565b826001600160a01b03166114de82610b95565b6001600160a01b0316146115045760405162461bcd60e51b815260040161086e9061279e565b600081815260046020908152604080832080546001600160a01b03199081169091556001600160a01b0387811680865260038552838620805460001901905590871680865283862080546001019055868652600290945282852080549092168417909155905184937fddf252ad1be2c89b69c2b068fc378daa952ba7f163c4a11628f55a4df523b3ef91a4505050565b61159e8282610c7b565b610a7a5760008281526006602090815260408083206001600160a01b03851684529091529020805460ff191660011790556115d63390565b6001600160a01b0316816001600160a01b0316837f2f8788117e7eff1d82e926ec794901d17c78024a50270940304540a733656f0d60405160405180910390a45050565b6116248282610c7b565b15610a7a5760008281526006602090815260408083206001600160a01b0385168085529252808320805460ff1916905551339285917ff6391f5c32d9c69d2a47ea670b442974b53935d1edc7fd64eb21e047a839171b9190a45050565b816001600160a01b0316836001600160a01b0316036116e25760405162461bcd60e51b815260206004820152601960248201527f4552433732313a20617070726f766520746f2063616c6c657200000000000000604482015260640161086e565b6001600160a01b03838116600081815260056020908152604080832094871680845294825291829020805460ff191686151590811790915591519182527f17307eab39ab6107e8899845ad3d59bd9653f200f220920489ca2b5937696c31910160405180910390a3505050565b61175a848484611423565b61176684848484611928565b610cf25760405162461bcd60e51b815260040161086e906127e3565b6002600754036117d45760405162461bcd60e51b815260206004820152601f60248201527f5265656e7472616e637947756172643a207265656e7472616e742063616c6c00604482015260640161086e565b6002600755565b610a7a828260405180602001604052806000815250611a26565b6000600282101580156106fe5750506011101590565b6060600061181883611a59565b600101905060008167ffffffffffffffff81111561183857611838612315565b6040519080825280601f01601f191660200182016040528015611862576020820181803683370190505b5090508181016020015b600019016f181899199a1a9b1b9c1cb0b131b232b360811b600a86061a8153600a850494508461186c57509392505050565b6118a88282610c7b565b610a7a576118b581611b31565b6118c0836020611b43565b6040516020016118d1929190612835565b60408051601f198184030181529082905262461bcd60e51b825261086e916004016121d1565b60006001600160e01b03198216637965db0b60e01b14806106fe57506106fe82611263565b610cf284848484611cdf565b60006001600160a01b0384163b15611a1e57604051630a85bd0160e11b81526001600160a01b0385169063150b7a029061196c9033908990889088906004016128aa565b6020604051808303816000875af19250505080156119a7575060408051601f3d908101601f191682019092526119a4918101906128e7565b60015b611a04573d8080156119d5576040519150601f19603f3d011682016040523d82523d6000602084013e6119da565b606091505b5080516000036119fc5760405162461bcd60e51b815260040161086e906127e3565b805181602001fd5b6001600160e01b031916630a85bd0160e11b1490506111b5565b5060016111b5565b611a308383611e0c565b611a3d6000848484611928565b61090f5760405162461bcd60e51b815260040161086e906127e3565b60008072184f03e93ff9f4daa797ed6e38ed64bf6a1f0160401b8310611a985772184f03e93ff9f4daa797ed6e38ed64bf6a1f0160401b830492506040015b6d04ee2d6d415b85acef81000000008310611ac4576d04ee2d6d415b85acef8100000000830492506020015b662386f26fc100008310611ae257662386f26fc10000830492506010015b6305f5e1008310611afa576305f5e100830492506008015b6127108310611b0e57612710830492506004015b60648310611b20576064830492506002015b600a83106106fe5760010192915050565b60606106fe6001600160a01b03831660145b60606000611b528360026126ad565b611b5d906002612619565b67ffffffffffffffff811115611b7557611b75612315565b6040519080825280601f01601f191660200182016040528015611b9f576020820181803683370190505b509050600360fc1b81600081518110611bba57611bba61262c565b60200101906001600160f81b031916908160001a905350600f60fb1b81600181518110611be957611be961262c565b60200101906001600160f81b031916908160001a9053506000611c0d8460026126ad565b611c18906001612619565b90505b6001811115611c90576f181899199a1a9b1b9c1cb0b131b232b360811b85600f1660108110611c4c57611c4c61262c565b1a60f81b828281518110611c6257611c6261262c565b60200101906001600160f81b031916908160001a90535060049490941c93611c8981612904565b9050611c1b565b50831561122a5760405162461bcd60e51b815260206004820181905260248201527f537472696e67733a20686578206c656e67746820696e73756666696369656e74604482015260640161086e565b6001811115611d4e5760405162461bcd60e51b815260206004820152603560248201527f455243373231456e756d657261626c653a20636f6e7365637574697665207472604482015274185b9cd9995c9cc81b9bdd081cdd5c1c1bdc9d1959605a1b606482015260840161086e565b816001600160a01b038516611daa57611da581600a80546000838152600b60205260408120829055600182018355919091527fc65a7bb8d6351c1cf70c95a316cc6a92839c986682d98bc35f958f4883f9d2a80155565b611dcd565b836001600160a01b0316856001600160a01b031614611dcd57611dcd8582611fa5565b6001600160a01b038416611de957611de481612042565b6110d8565b846001600160a01b0316846001600160a01b0316146110d8576110d884826120f1565b6001600160a01b038216611e625760405162461bcd60e51b815260206004820181905260248201527f4552433732313a206d696e7420746f20746865207a65726f2061646472657373604482015260640161086e565b6000818152600260205260409020546001600160a01b031615611ec75760405162461bcd60e51b815260206004820152601c60248201527f4552433732313a20746f6b656e20616c7265616479206d696e74656400000000604482015260640161086e565b611ed560008383600161191c565b6000818152600260205260409020546001600160a01b031615611f3a5760405162461bcd60e51b815260206004820152601c60248201527f4552433732313a20746f6b656e20616c7265616479206d696e74656400000000604482015260640161086e565b6001600160a01b038216600081815260036020908152604080832080546001019055848352600290915280822080546001600160a01b0319168417905551839291907fddf252ad1be2c89b69c2b068fc378daa952ba7f163c4a11628f55a4df523b3ef908290a45050565b60006001611fb284610bf5565b611fbc919061275c565b60008381526009602052604090205490915080821461200f576001600160a01b03841660009081526008602090815260408083208584528252808320548484528184208190558352600990915290208190555b5060009182526009602090815260408084208490556001600160a01b039094168352600881528383209183525290812055565b600a546000906120549060019061275c565b6000838152600b6020526040812054600a805493945090928490811061207c5761207c61262c565b9060005260206000200154905080600a838154811061209d5761209d61262c565b6000918252602080832090910192909255828152600b9091526040808220849055858252812055600a8054806120d5576120d561291b565b6001900381819060005260206000200160009055905550505050565b60006120fc83610bf5565b6001600160a01b039093166000908152600860209081526040808320868452825280832085905593825260099052919091209190915550565b60006020828403121561214757600080fd5b5035919050565b6001600160e01b03198116811461126057600080fd5b60006020828403121561217657600080fd5b813561122a8161214e565b60005b8381101561219c578181015183820152602001612184565b50506000910152565b600081518084526121bd816020860160208601612181565b601f01601f19169290920160200192915050565b60208152600061122a60208301846121a5565b600080604083850312156121f757600080fd5b50508035926020909101359150565b80356001600160a01b038116811461221d57600080fd5b919050565b6000806040838503121561223557600080fd5b61223e83612206565b946020939093013593505050565b60008060006060848603121561226157600080fd5b61226a84612206565b925061227860208501612206565b929592945050506040919091013590565b6000806040838503121561229c57600080fd5b823591506122ac60208401612206565b90509250929050565b6000602082840312156122c757600080fd5b61122a82612206565b801515811461126057600080fd5b600080604083850312156122f157600080fd5b6122fa83612206565b9150602083013561230a816122d0565b809150509250929050565b634e487b7160e01b600052604160045260246000fd5b6000806000806080858703121561234157600080fd5b61234a85612206565b935061235860208601612206565b925060408501359150606085013567ffffffffffffffff81111561237b57600080fd5b8501601f8101871361238c57600080fd5b803567ffffffffffffffff8111156123a6576123a6612315565b604051601f8201601f19908116603f0116810167ffffffffffffffff811182821017156123d5576123d5612315565b6040528181528282016020018910156123ed57600080fd5b8160208401602083013760006020838301015280935050505092959194509250565b60008083601f84011261242157600080fd5b50813567ffffffffffffffff81111561243957600080fd5b6020830191508360208260051b850101111561245457600080fd5b9250929050565b60008060006040848603121561247057600080fd5b83359250602084013567ffffffffffffffff81111561248e57600080fd5b61249a8682870161240f565b9497909650939450505050565b6000806000806000606086880312156124bf57600080fd5b853567ffffffffffffffff8111156124d657600080fd5b6124e28882890161240f565b909650945050602086013567ffffffffffffffff81111561250257600080fd5b61250e8882890161240f565b96999598509660400135949350505050565b6000806000806080858703121561253657600080fd5b5050823594602084013594506040840135936060013592509050565b6000806040838503121561256557600080fd5b61256e83612206565b91506122ac60208401612206565b600181811c9082168061259057607f821691505b6020821081036125b057634e487b7160e01b600052602260045260246000fd5b50919050565b6020808252602d908201527f4552433732313a2063616c6c6572206973206e6f7420746f6b656e206f776e6560408201526c1c881bdc88185c1c1c9bdd9959609a1b606082015260800190565b634e487b7160e01b600052601160045260246000fd5b808201808211156106fe576106fe612603565b634e487b7160e01b600052603260045260246000fd5b858152608060208201819052810184905260006001600160fb1b0385111561266957600080fd5b8460051b808760a085013760408301949094525060608101919091520160a0019392505050565b6000602082840312156126a257600080fd5b815161122a816122d0565b80820281158282048414176106fe576106fe612603565b6000808335601e198436030181126126db57600080fd5b83018035915067ffffffffffffffff8211156126f657600080fd5b6020019150600581901b360382131561245457600080fd5b6020808252602e908201527f41747472696275746573206d757374206265206265747765656e203220616e6460408201526d10189b9034b731b63ab9b4bb329760911b606082015260800190565b818103818111156106fe576106fe612603565b60008351612781818460208801612181565b835190830190612795818360208801612181565b01949350505050565b60208082526025908201527f4552433732313a207472616e736665722066726f6d20696e636f72726563742060408201526437bbb732b960d91b606082015260800190565b60208082526032908201527f4552433732313a207472616e7366657220746f206e6f6e20455243373231526560408201527131b2b4bb32b91034b6b83632b6b2b73a32b960711b606082015260800190565b7f416363657373436f6e74726f6c3a206163636f756e742000000000000000000081526000835161286d816017850160208801612181565b7001034b99036b4b9b9b4b733903937b6329607d1b601791840191820152835161289e816028840160208801612181565b01602801949350505050565b6001600160a01b03858116825284166020820152604081018390526080606082018190526000906128dd908301846121a5565b9695505050505050565b6000602082840312156128f957600080fd5b815161122a8161214e565b60008161291357612913612603565b506000190190565b634e487b7160e01b600052603160045260246000fdfea2646970667358221220d5ab626a53e28b66b8b06a8ef9b8794e6b509888b2882c3867ac1126f5c5aed164736f6c634300081a0033",
    "linkReferences": {}
  },
  "methodIdentifiers": {
    "DEFAULT_ADMIN_ROLE()": "a217fddf",
    "MAINTENANCE_ROLE()": "1dec5e07",
    "approve(address,uint256)": "095ea7b3",
    "attributes(uint256)": "d05dcc6a",
    "balanceOf(address)": "70a08231",
    "batchMint(uint256[],bytes32[][],uint256)": "bd1b3b49",
    "decodeAttributes(uint256)": "46494813",
    "encodeAttributes(uint256,uint256,uint256,uint256)": "bda22250",
    "getApproved(uint256)": "081812fc",
    "getRoleAdmin(bytes32)": "248a9ca3",
    "grantRole(bytes32,address)": "2f2ff15d",
    "hasRole(bytes32,address)": "91d14854",
    "isApprovedForAll(address,address)": "e985e9c5",
    "maintenance(uint256,uint256)": "0863e9fa",
    "merkleRoot()": "2eb4a7ab",
    "mint(uint256,bytes32[])": "ba41b0c6",
    "mintPrice()": "6817c76c",
    "name()": "06fdde03",
    "nextTokenIdToMint()": "3b1475a7",
    "ownerOf(uint256)": "6352211e",
    "renounceRole(bytes32,address)": "36568abe",
    "revokeRole(bytes32,address)": "d547741f",
    "safeTransferFrom(address,address,uint256)": "42842e0e",
    "safeTransferFrom(address,address,uint256,bytes)": "b88d4fde",
    "setApprovalForAll(address,bool)": "a22cb465",
    "supportsInterface(bytes4)": "01ffc9a7",
    "symbol()": "95d89b41",
    "tokenByIndex(uint256)": "4f6ccce7",
    "tokenOfOwnerByIndex(address,uint256)": "2f745c59",
    "tokenURI(uint256)": "c87b56dd",
    "totalSupply()": "18160ddd",
    "transferFrom(address,address,uint256)": "23b872dd",
    "updateMerkleRoot(bytes32)": "4783f0ef",
    "updateMintPrice(uint256)": "00728e46",
    "verifier()": "2b7ac3f3"
  },
  "id": 41
}