{
  "abi": [
    {
      "type": "constructor",
      "inputs": [
        {
          "name": "_nftAddress",
          "type": "address",
          "internalType": "address"
        },
        {
          "name": "_rng",
          "type": "address",
          "internalType": "address"
        }
      ],
      "stateMutability": "nonpayable"
    },
    {
      "type": "function",
      "name": "cosmoShips",
      "inputs": [],
      "outputs": [
        {
          "name": "",
          "type": "address",
          "internalType": "contract CosmoShips"
        }
      ],
      "stateMutability": "view"
    },
    {
      "type": "function",
      "name": "createTeam",
      "inputs": [
        {
          "name": "nftIds",
          "type": "uint256[]",
          "internalType": "uint256[]"
        },
        {
          "name": "teamName",
          "type": "string",
          "internalType": "string"
        }
      ],
      "outputs": [
        {
          "name": "",
          "type": "uint256",
          "internalType": "uint256"
        }
      ],
      "stateMutability": "nonpayable"
    },
    {
      "type": "function",
      "name": "currentLeagueId",
      "inputs": [],
      "outputs": [
        {
          "name": "",
          "type": "uint256",
          "internalType": "uint256"
        }
      ],
      "stateMutability": "view"
    },
    {
      "type": "function",
      "name": "determineMatchOutcome",
      "inputs": [
        {
          "name": "leagueId",
          "type": "uint256",
          "internalType": "uint256"
        },
        {
          "name": "gameId",
          "type": "uint256",
          "internalType": "uint256"
        }
      ],
      "outputs": [
        {
          "name": "winner",
          "type": "uint256",
          "internalType": "uint256"
        },
        {
          "name": "loser",
          "type": "uint256",
          "internalType": "uint256"
        }
      ],
      "stateMutability": "nonpayable"
    },
    {
      "type": "function",
      "name": "endBettingAndStartGame",
      "inputs": [],
      "outputs": [],
      "stateMutability": "nonpayable"
    },
    {
      "type": "function",
      "name": "endEnrollmentAndStartBetting",
      "inputs": [],
      "outputs": [],
      "stateMutability": "nonpayable"
    },
    {
      "type": "function",
      "name": "enrollToLeague",
      "inputs": [
        {
          "name": "teamId",
          "type": "uint256",
          "internalType": "uint256"
        }
      ],
      "outputs": [],
      "stateMutability": "nonpayable"
    },
    {
      "type": "function",
      "name": "getEnrolledTeams",
      "inputs": [],
      "outputs": [
        {
          "name": "",
          "type": "uint256[]",
          "internalType": "uint256[]"
        },
        {
          "name": "",
          "type": "string[]",
          "internalType": "string[]"
        },
        {
          "name": "",
          "type": "address[]",
          "internalType": "address[]"
        }
      ],
      "stateMutability": "view"
    },
    {
      "type": "function",
      "name": "getLeaderboard",
      "inputs": [
        {
          "name": "leagueId",
          "type": "uint256",
          "internalType": "uint256"
        }
      ],
      "outputs": [
        {
          "name": "teamIds",
          "type": "uint256[]",
          "internalType": "uint256[]"
        },
        {
          "name": "teamNames",
          "type": "string[]",
          "internalType": "string[]"
        },
        {
          "name": "totalScores",
          "type": "uint256[]",
          "internalType": "uint256[]"
        },
        {
          "name": "gamesPlayed",
          "type": "uint256[]",
          "internalType": "uint256[]"
        }
      ],
      "stateMutability": "view"
    },
    {
      "type": "function",
      "name": "getLeague",
      "inputs": [
        {
          "name": "leagueId",
          "type": "uint256",
          "internalType": "uint256"
        }
      ],
      "outputs": [
        {
          "name": "id",
          "type": "uint256",
          "internalType": "uint256"
        },
        {
          "name": "state",
          "type": "uint8",
          "internalType": "enum GameLeague.LeagueState"
        },
        {
          "name": "prizePool",
          "type": "uint256",
          "internalType": "uint256"
        },
        {
          "name": "enrolledTeams",
          "type": "uint256[]",
          "internalType": "uint256[]"
        },
        {
          "name": "totalBetsInLeague",
          "type": "uint256",
          "internalType": "uint256"
        }
      ],
      "stateMutability": "view"
    },
    {
      "type": "function",
      "name": "getMatch",
      "inputs": [
        {
          "name": "leagueId",
          "type": "uint256",
          "internalType": "uint256"
        },
        {
          "name": "matchId",
          "type": "uint256",
          "internalType": "uint256"
        }
      ],
      "outputs": [
        {
          "name": "id",
          "type": "uint256",
          "internalType": "uint256"
        },
        {
          "name": "team1",
          "type": "uint256",
          "internalType": "uint256"
        },
        {
          "name": "team2",
          "type": "uint256",
          "internalType": "uint256"
        },
        {
          "name": "winner",
          "type": "uint256",
          "internalType": "uint256"
        },
        {
          "name": "gameType",
          "type": "uint8",
          "internalType": "enum GameLeague.GameType"
        }
      ],
      "stateMutability": "view"
    },
    {
      "type": "function",
      "name": "getTeam",
      "inputs": [
        {
          "name": "teamId",
          "type": "uint256",
          "internalType": "uint256"
        }
      ],
      "outputs": [
        {
          "name": "",
          "type": "string",
          "internalType": "string"
        },
        {
          "name": "",
          "type": "uint256[]",
          "internalType": "uint256[]"
        },
        {
          "name": "",
          "type": "address",
          "internalType": "address"
        }
      ],
      "stateMutability": "view"
    },
    {
      "type": "function",
      "name": "getTeamsByOwner",
      "inputs": [
        {
          "name": "owner",
          "type": "address",
          "internalType": "address"
        }
      ],
      "outputs": [
        {
          "name": "teamIds",
          "type": "uint256[]",
          "internalType": "uint256[]"
        },
        {
          "name": "teamNames",
          "type": "string[]",
          "internalType": "string[]"
        },
        {
          "name": "tokenIndexes",
          "type": "uint256[][]",
          "internalType": "uint256[][]"
        }
      ],
      "stateMutability": "view"
    },
    {
      "type": "function",
      "name": "getUserBets",
      "inputs": [
        {
          "name": "leagueId",
          "type": "uint256",
          "internalType": "uint256"
        },
        {
          "name": "user",
          "type": "address",
          "internalType": "address"
        }
      ],
      "outputs": [
        {
          "name": "teamIds",
          "type": "uint256[]",
          "internalType": "uint256[]"
        },
        {
          "name": "betAmounts",
          "type": "uint256[]",
          "internalType": "uint256[]"
        }
      ],
      "stateMutability": "view"
    },
    {
      "type": "function",
      "name": "initializeLeague",
      "inputs": [],
      "outputs": [],
      "stateMutability": "payable"
    },
    {
      "type": "function",
      "name": "isTeamEnrolled",
      "inputs": [
        {
          "name": "teamId",
          "type": "uint256",
          "internalType": "uint256"
        },
        {
          "name": "leagueId",
          "type": "uint256",
          "internalType": "uint256"
        }
      ],
      "outputs": [
        {
          "name": "",
          "type": "bool",
          "internalType": "bool"
        }
      ],
      "stateMutability": "view"
    },
    {
      "type": "function",
      "name": "leagues",
      "inputs": [
        {
          "name": "",
          "type": "uint256",
          "internalType": "uint256"
        }
      ],
      "outputs": [
        {
          "name": "id",
          "type": "uint256",
          "internalType": "uint256"
        },
        {
          "name": "prizePool",
          "type": "uint256",
          "internalType": "uint256"
        },
        {
          "name": "totalBetsInLeague",
          "type": "uint256",
          "internalType": "uint256"
        },
        {
          "name": "state",
          "type": "uint8",
          "internalType": "enum GameLeague.LeagueState"
        },
        {
          "name": "gameIdCounter",
          "type": "tuple",
          "internalType": "struct Counters.Counter",
          "components": [
            {
              "name": "_value",
              "type": "uint256",
              "internalType": "uint256"
            }
          ]
        }
      ],
      "stateMutability": "view"
    },
    {
      "type": "function",
      "name": "onERC721Received",
      "inputs": [
        {
          "name": "",
          "type": "address",
          "internalType": "address"
        },
        {
          "name": "",
          "type": "address",
          "internalType": "address"
        },
        {
          "name": "",
          "type": "uint256",
          "internalType": "uint256"
        },
        {
          "name": "",
          "type": "bytes",
          "internalType": "bytes"
        }
      ],
      "outputs": [
        {
          "name": "",
          "type": "bytes4",
          "internalType": "bytes4"
        }
      ],
      "stateMutability": "nonpayable"
    },
    {
      "type": "function",
      "name": "placeBet",
      "inputs": [
        {
          "name": "leagueId",
          "type": "uint256",
          "internalType": "uint256"
        },
        {
          "name": "teamId",
          "type": "uint256",
          "internalType": "uint256"
        }
      ],
      "outputs": [],
      "stateMutability": "payable"
    },
    {
      "type": "function",
      "name": "rng",
      "inputs": [],
      "outputs": [
        {
          "name": "",
          "type": "address",
          "internalType": "contract IRandomNumberGenerator"
        }
      ],
      "stateMutability": "view"
    },
    {
      "type": "function",
      "name": "runGameLeague",
      "inputs": [],
      "outputs": [],
      "stateMutability": "nonpayable"
    },
    {
      "type": "function",
      "name": "setupMatches",
      "inputs": [
        {
          "name": "seed",
          "type": "uint256",
          "internalType": "uint256"
        }
      ],
      "outputs": [],
      "stateMutability": "nonpayable"
    },
    {
      "type": "function",
      "name": "stakes",
      "inputs": [
        {
          "name": "",
          "type": "address",
          "internalType": "address"
        }
      ],
      "outputs": [
        {
          "name": "",
          "type": "uint256",
          "internalType": "uint256"
        }
      ],
      "stateMutability": "view"
    },
    {
      "type": "function",
      "name": "teams",
      "inputs": [
        {
          "name": "",
          "type": "uint256",
          "internalType": "uint256"
        }
      ],
      "outputs": [
        {
          "name": "owner",
          "type": "address",
          "internalType": "address"
        },
        {
          "name": "name",
          "type": "string",
          "internalType": "string"
        }
      ],
      "stateMutability": "view"
    },
    {
      "type": "event",
      "name": "GamesSetup",
      "inputs": [
        {
          "name": "leagueId",
          "type": "uint256",
          "indexed": true,
          "internalType": "uint256"
        },
        {
          "name": "gameIds",
          "type": "uint256[]",
          "indexed": false,
          "internalType": "uint256[]"
        },
        {
          "name": "team1s",
          "type": "uint256[]",
          "indexed": false,
          "internalType": "uint256[]"
        },
        {
          "name": "team2s",
          "type": "uint256[]",
          "indexed": false,
          "internalType": "uint256[]"
        },
        {
          "name": "gameTypes",
          "type": "uint8[]",
          "indexed": false,
          "internalType": "enum GameLeague.GameType[]"
        }
      ],
      "anonymous": false
    },
    {
      "type": "event",
      "name": "Leaderboard",
      "inputs": [
        {
          "name": "leagueId",
          "type": "uint256",
          "indexed": true,
          "internalType": "uint256"
        },
        {
          "name": "teamIds",
          "type": "uint256[]",
          "indexed": false,
          "internalType": "uint256[]"
        },
        {
          "name": "teamNames",
          "type": "string[]",
          "indexed": false,
          "internalType": "string[]"
        },
        {
          "name": "totalScores",
          "type": "uint256[]",
          "indexed": false,
          "internalType": "uint256[]"
        },
        {
          "name": "gamesPlayed",
          "type": "uint256[]",
          "indexed": false,
          "internalType": "uint256[]"
        }
      ],
      "anonymous": false
    }
  ],
  "bytecode": {
    "object": "0x6080604052348015600f57600080fd5b506040516133c43803806133c4833981016040819052602c916077565b600680546001600160a01b039384166001600160a01b0319918216179091556007805492909316911617905560a5565b80516001600160a01b0381168114607257600080fd5b919050565b60008060408385031215608957600080fd5b609083605c565b9150609c60208401605c565b90509250929050565b613310806100b46000396000f3fe60806040526004361061014a5760003560e01c80634afe62b5116100b6578063a34b46fe1161006f578063a34b46fe1461046a578063ac8cb21d1461049a578063c648fefe146104af578063d605787b1461051a578063d80eaf711461053a578063fa744dd31461054f57600080fd5b80634afe62b5146103b65780635d7c9276146103c95780636fb984ef146103ed5780637df0b5db146103f5578063849851e114610415578063885fb8651461044a57600080fd5b8063339c9f2811610108578063339c9f28146102c457806339bb1e5c146102d95780633ed2b77a1461030957806345516aaa146103375780634678f27b14610368578063496963b1146103a057600080fd5b80628e0f1b1461014f57806302e95e9c14610187578063107cfe51146101b6578063150b7a021461022357806316934fc414610267578063236aa56b146102a2575b600080fd5b34801561015b57600080fd5b5061016f61016a3660046129ae565b61057d565b60405161017e93929190612a49565b60405180910390f35b34801561019357600080fd5b506101a76101a2366004612a9f565b610697565b60405161017e93929190612b1f565b3480156101c257600080fd5b506102126101d1366004612bab565b60009182526003602081815260408085209385526006938401909152909220805460018201546002830154948301549290930154909492939260ff90911690565b60405161017e959493929190612bf7565b34801561022f57600080fd5b5061024e61023e366004612c41565b630a85bd0160e11b949350505050565b6040516001600160e01b0319909116815260200161017e565b34801561027357600080fd5b50610294610282366004612a9f565b60056020526000908152604090205481565b60405190815260200161017e565b3480156102ae57600080fd5b506102c26102bd3660046129ae565b610981565b005b3480156102d057600080fd5b506102c261100d565b3480156102e557600080fd5b506102f96102f4366004612bab565b6110f5565b604051901515815260200161017e565b34801561031557600080fd5b506103296103243660046129ae565b61111c565b60405161017e929190612d26565b34801561034357600080fd5b506103576103523660046129ae565b6111ce565b60405161017e959493929190612d62565b34801561037457600080fd5b50600654610388906001600160a01b031681565b6040516001600160a01b03909116815260200161017e565b3480156103ac57600080fd5b5061029460025481565b6102c26103c4366004612bab565b611268565b3480156103d557600080fd5b506103de61145b565b60405161017e93929190612da0565b6102c26116a1565b34801561040157600080fd5b50610294610410366004612e55565b611767565b34801561042157600080fd5b50610435610430366004612bab565b6119d0565b6040805192835260208301919091520161017e565b34801561045657600080fd5b506102c26104653660046129ae565b611c7e565b34801561047657600080fd5b5061048a6104853660046129ae565b611d94565b60405161017e9493929190612ef5565b3480156104a657600080fd5b506102c261204e565b3480156104bb57600080fd5b506105096104ca3660046129ae565b600360208181526000928352604092839020805460018201546002830154948301548651948501909652600d9092015483529390929160ff9091169085565b60405161017e959493929190612f4d565b34801561052657600080fd5b50600754610388906001600160a01b031681565b34801561054657600080fd5b506102c2612163565b34801561055b57600080fd5b5061056f61056a366004612f80565b6121f4565b60405161017e929190612fb0565b600081815260046020526040812060018101546002820180546060948594909390929183916001600160a01b03169083906105b790612fde565b80601f01602080910402602001604051908101604052809291908181526020018280546105e390612fde565b80156106305780601f1061060557610100808354040283529160200191610630565b820191906000526020600020905b81548152906001019060200180831161061357829003601f168201915b505050505092508180548060200260200160405190810160405280929190818152602001828054801561068257602002820191906000526020600020905b81548152602001906001019080831161066e575b50505050509150935093509350509193909250565b606080606060006106a760015490565b90506000805b828110156106ef576000818152600460205260409020600101546001600160a01b038089169116036106e757816106e38161302e565b9250505b6001016106ad565b50806001600160401b0381111561070857610708612c2b565b604051908082528060200260200182016040528015610731578160200160208202803683370190505b509450806001600160401b0381111561074c5761074c612c2b565b60405190808252806020026020018201604052801561077f57816020015b606081526020019060019003908161076a5790505b509350806001600160401b0381111561079a5761079a612c2b565b6040519080825280602002602001820160405280156107cd57816020015b60608152602001906001900390816107b85790505b5092506000905060005b82811015610977576000818152600460205260409020600101546001600160a01b0380891691160361096f578086838151811061081657610816613047565b60200260200101818152505060046000828152602001908152602001600020600201805461084390612fde565b80601f016020809104026020016040519081016040528092919081815260200182805461086f90612fde565b80156108bc5780601f10610891576101008083540402835291602001916108bc565b820191906000526020600020905b81548152906001019060200180831161089f57829003601f168201915b50505050508583815181106108d3576108d3613047565b60200260200101819052506004600082815260200190815260200160002060000180548060200260200160405190810160405280929190818152602001828054801561093e57602002820191906000526020600020905b81548152602001906001019080831161092a575b505050505084838151811061095557610955613047565b6020026020010181905250818061096b9061302e565b9250505b6001016107d7565b5050509193909250565b600254600081815260036020819052604090912090600382015460ff1660068111156109af576109af612bcd565b14806109d357506004600382015460ff1660068111156109d1576109d1612bcd565b145b610a385760405162461bcd60e51b815260206004820152602b60248201527f496e76616c6964206c656167756520737461746520666f722073657474696e6760448201526a207570206d61746368657360a81b60648201526084015b60405180910390fd5b60048101546002811015610a995760405162461bcd60e51b815260206004820152602260248201527f4e6f7420656e6f756768207465616d7320746f20736574207570206d61746368604482015261657360f01b6064820152608401610a2f565b6000610aa6600283613073565b6001600160401b03811115610abd57610abd612c2b565b604051908082528060200260200182016040528015610ae6578160200160208202803683370190505b5090506000610af6600284613073565b6001600160401b03811115610b0d57610b0d612c2b565b604051908082528060200260200182016040528015610b36578160200160208202803683370190505b5090506000610b46600285613073565b6001600160401b03811115610b5d57610b5d612c2b565b604051908082528060200260200182016040528015610b86578160200160208202803683370190505b5090506000610b96600286613073565b6001600160401b03811115610bad57610bad612c2b565b604051908082528060200260200182016040528015610bd6578160200160208202803683370190505b50905060005b85811015610d13576000610bf08288613087565b6007546001600160a01b031663b37217a4610c0b858e61309a565b6040518263ffffffff1660e01b8152600401610c2991815260200190565b602060405180830381865afa158015610c46573d6000803e3d6000fd5b505050506040513d601f19601f82011682018060405250810190610c6a91906130ad565b610c7491906130c6565b610c7e908361309a565b90506000886004018281548110610c9757610c97613047565b90600052602060002001549050886004018381548110610cb957610cb9613047565b9060005260206000200154896004018381548110610cd957610cd9613047565b906000526020600020018190555080896004018481548110610cfd57610cfd613047565b6000918252602090912001555050600101610bdc565b5060005b610d22600287613073565b811015610fc457600060048801610d3a8360026130da565b81548110610d4a57610d4a613047565b6000918252602082200154915060048901610d668460026130da565b610d7190600161309a565b81548110610d8157610d81613047565b9060005260206000200154905060006002600760009054906101000a90046001600160a01b03166001600160a01b031663b37217a4868f610dc2919061309a565b6040518263ffffffff1660e01b8152600401610de091815260200190565b602060405180830381865afa158015610dfd573d6000803e3d6000fd5b505050506040513d601f19601f82011682018060405250810190610e2191906130ad565b610e2b91906130c6565b15610e37576001610e3a565b60005b90506000610e498b600d015490565b90506040518060e0016040528082815260200185815260200184815260200160001981526020016000815260200160008152602001836001811115610e9057610e90612bcd565b905260008281526006808e0160209081526040928390208451815590840151600180830191909155928401516002820155606084015160038201556080840151600482015560a0840151600582015560c084015191810180549193909160ff1916908381811115610f0357610f03612bcd565b02179055505050600d8b018054600101905580898681518110610f2857610f28613047565b60200260200101818152505083888681518110610f4757610f47613047565b60200260200101818152505082878681518110610f6657610f66613047565b60200260200101818152505081868681518110610f8557610f85613047565b60200260200101906001811115610f9e57610f9e612bcd565b90816001811115610fb157610fb1612bcd565b9052505060019093019250610d17915050565b50867f555f2bee292e64c33376a230298bd6e5e9502ee97cd80ce83a2e3dad3883508985858585604051610ffb94939291906130f1565b60405180910390a25050505050505050565b60025460008181526003602052604090206004600382015460ff16600681111561103957611039612bcd565b146110865760405162461bcd60e51b815260206004820152601e60248201527f4c6561677565206973206e6f7420696e2072756e6e696e6720737461746500006044820152606401610a2f565b6004810154600110156110da576110a16102bd82600d015490565b60005b600d8201548110156110c4576110ba83826119d0565b50506001016110a4565b506110ce82612423565b6000600d820155611086565b6003810180546006919060ff19166001835b02179055505050565b600081815260036020908152604080832085845260050190915290205460ff165b92915050565b600460205260009081526040902060018101546002820180546001600160a01b03909216929161114b90612fde565b80601f016020809104026020016040519081016040528092919081815260200182805461117790612fde565b80156111c45780601f10611199576101008083540402835291602001916111c4565b820191906000526020600020905b8154815290600101906020018083116111a757829003601f168201915b5050505050905082565b600081815260036020818152604080842080549381015460018201546002830154600484018054865181890281018901909752808752899889986060988a9897929660ff90931695929493909184919083018282801561124d57602002820191906000526020600020905b815481526020019060010190808311611239575b50505050509150955095509550955095505091939590929450565b600082815260036020819052604090912090600382015460ff16600681111561129357611293612bcd565b146112d85760405162461bcd60e51b815260206004820152601560248201527442657474696e67206973206e6f742061637469766560581b6044820152606401610a2f565b600034116113325760405162461bcd60e51b815260206004820152602160248201527f42657420616d6f756e74206d7573742062652067726561746572207468616e206044820152600360fc1b6064820152608401610a2f565b600082815260058201602052604090205460ff1661139d5760405162461bcd60e51b815260206004820152602260248201527f5465616d20646f6573206e6f7420657869737420696e2074686973206c656167604482015261756560f01b6064820152608401610a2f565b336000908152600882016020908152604080832085845290915281205490036113e5573360009081526009820160209081526040822080546001810182559083529120018290555b33600090815260088201602090815260408083208584529091528120805434929061141190849061309a565b909155505060008281526007820160205260408120805434929061143690849061309a565b9250508190555034816002016000828254611451919061309a565b9091555050505050565b606080606060006003600060025481526020019081526020016000206004018054806020026020016040519081016040528092919081815260200182805480156114c457602002820191906000526020600020905b8154815260200190600101908083116114b0575b505050505090506000815190506000816001600160401b038111156114eb576114eb612c2b565b60405190808252806020026020018201604052801561151e57816020015b60608152602001906001900390816115095790505b5090506000826001600160401b0381111561153b5761153b612c2b565b604051908082528060200260200182016040528015611564578160200160208202803683370190505b50905060005b838110156116925760006004600087848151811061158a5761158a613047565b6020026020010151815260200190815260200160002090508060020180546115b190612fde565b80601f01602080910402602001604051908101604052809291908181526020018280546115dd90612fde565b801561162a5780601f106115ff5761010080835404028352916020019161162a565b820191906000526020600020905b81548152906001019060200180831161160d57829003601f168201915b505050505084838151811061164157611641613047565b6020908102919091010152600181015483516001600160a01b039091169084908490811061167157611671613047565b6001600160a01b03909216602092830291909101909101525060010161156a565b50929690955091935090915050565b60066002546000908152600360208190526040909120015460ff1660068111156116cd576116cd612bcd565b14806116d95750600254155b6117255760405162461bcd60e51b815260206004820152601d60248201527f50726576696f7573206c6561677565206e6f7420636f6e636c756465640000006044820152606401610a2f565b600280549060006117358361302e565b909155505060025460008181526003602081905260409091209182558101805460ff1916600190811790915534910155565b6000600384146117b95760405162461bcd60e51b815260206004820152601d60248201527f4d757374207374616b652065786163746c79207468726565204e4654730000006044820152606401610a2f565b60006117c460015490565b60008181526004602052604081209192505b868110156119935760065433906001600160a01b0316636352211e8a8a8581811061180357611803613047565b905060200201356040518263ffffffff1660e01b815260040161182891815260200190565b602060405180830381865afa158015611845573d6000803e3d6000fd5b505050506040513d601f19601f820116820180604052508101906118699190613179565b6001600160a01b0316146118bf5760405162461bcd60e51b815260206004820152601860248201527f4e6f7420746865206f776e6572206f6620746865204e465400000000000000006044820152606401610a2f565b6006546001600160a01b03166323b872dd33308b8b868181106118e4576118e4613047565b6040516001600160e01b031960e088901b1681526001600160a01b03958616600482015294909316602485015250602090910201356044820152606401600060405180830381600087803b15801561193b57600080fd5b505af115801561194f573d6000803e3d6000fd5b505050508160000188888381811061196957611969613047565b835460018082018655600095865260209586902092909502939093013592019190915550016117d6565b506001810180546001600160a01b03191633179055600281016119b78587836131e5565b506119c6600180546001019055565b5095945050505050565b600082815260036020908152604080832084845260068082019093529083206001810154928101548493611a069160ff16612693565b600482015560028101546006820154611a22919060ff16612693565b6005820155604080516020810188905290810186905260009060600160408051808303601f19018152908290528051602090910120600754632cdc85e960e21b8352600483018290529092506000916001600160a01b039091169063b37217a490602401602060405180830381865afa158015611aa3573d6000803e3d6000fd5b505050506040513d601f19601f82011682018060405250810190611ac791906130ad565b90506000611ad66064836130c6565b905083600501548460040154108015611aef5750601481105b15611b1d57611aff6014836130c6565b846004016000828254611b12919061309a565b90915550611b5d9050565b83600401548460050154108015611b345750601481105b15611b5d57611b446014836130c6565b846005016000828254611b57919061309a565b90915550505b836005015484600401541115611b7c5760018401546003850155611bc7565b836004015484600501541115611b9b5760028401546003850155611bc7565b6000611ba86002846130c6565b90508015611bba578460020154611bc0565b84600101545b6003860155505b600484015460018501546000908152600b8701602052604081208054909190611bf190849061309a565b9091555050600584015460028501546000908152600b8701602052604081208054909190611c2090849061309a565b909155505060018401546000908152600c860160205260408120805491611c468361302e565b909155505060028401546000908152600c860160205260408120805491611c6c8361302e565b919050555050505050505b9250929050565b60016002546000908152600360208190526040909120015460ff166006811115611caa57611caa612bcd565b14611cee5760405162461bcd60e51b8152602060048201526014602482015273115b9c9bdb1b1b595b9d081a5cc818db1bdcd95960621b6044820152606401610a2f565b6000611cf98261057d565b925050506001600160a01b0381163314611d465760405162461bcd60e51b815260206004820152600e60248201526d2737ba103a32b0b69037bbb732b960911b6044820152606401610a2f565b5060028054600090815260036020908152604080832060040180546001818101835591855283852001869055935483528083209483526005909401905291909120805460ff19169091179055565b60008181526003602052604090206004810154606091829182918291806001600160401b03811115611dc857611dc8612c2b565b604051908082528060200260200182016040528015611df1578160200160208202803683370190505b509550806001600160401b03811115611e0c57611e0c612c2b565b604051908082528060200260200182016040528015611e3f57816020015b6060815260200190600190039081611e2a5790505b509450806001600160401b03811115611e5a57611e5a612c2b565b604051908082528060200260200182016040528015611e83578160200160208202803683370190505b509350806001600160401b03811115611e9e57611e9e612c2b565b604051908082528060200260200182016040528015611ec7578160200160208202803683370190505b50925060005b81811015612044576000836004018281548110611eec57611eec613047565b9060005260206000200154905080888381518110611f0c57611f0c613047565b602002602001018181525050600460008281526020019081526020016000206002018054611f3990612fde565b80601f0160208091040260200160405190810160405280929190818152602001828054611f6590612fde565b8015611fb25780601f10611f8757610100808354040283529160200191611fb2565b820191906000526020600020905b815481529060010190602001808311611f9557829003601f168201915b5050505050878381518110611fc957611fc9613047565b602002602001018190525083600b01600082815260200190815260200160002054868381518110611ffc57611ffc613047565b60200260200101818152505083600c0160008281526020019081526020016000205485838151811061203057612030613047565b602090810291909101015250600101611ecd565b5050509193509193565b600280546000818152600360205260409020600481015491929091908110801590612083575061207f6002826130c6565b8116155b6120dd5760405162461bcd60e51b815260206004820152602560248201527f4e756d626572206f66207465616d73206d757374206265206120706f7765722060448201526437b310191760d91b6064820152608401610a2f565b6001600383015460ff1660068111156120f8576120f8612bcd565b1461214f5760405162461bcd60e51b815260206004820152602160248201527f4c6561677565206973206e6f7420696e20656e726f6c6c6d656e7420737461746044820152606560f81b6064820152608401610a2f565b506003908101805460ff1916909117905550565b600254600081815260036020819052604090912090600382015460ff16600681111561219157612191612bcd565b146121de5760405162461bcd60e51b815260206004820152601e60248201527f4c6561677565206973206e6f7420696e2062657474696e6720737461746500006044820152606401610a2f565b6003810180546004919060ff19166001836110ec565b60008281526003602090815260408083206001600160a01b03851684526009810190925280832080543385529190932054606093849392909161226a5760405162461bcd60e51b815260206004820152600e60248201526d139bc818995d1cc81c1b1858d95960921b6044820152606401610a2f565b806001600160401b0381111561228257612282612c2b565b6040519080825280602002602001820160405280156122ab578160200160208202803683370190505b509450806001600160401b038111156122c6576122c6612c2b565b6040519080825280602002602001820160405280156122ef578160200160208202803683370190505b50935060005b8181101561241857600083828154811061231157612311613047565b60009182526020808320909101546001600160a01b038b1683526008880182526040808420828552909252912054909150156123b0578087838151811061235a5761235a613047565b6020908102919091018101919091526001600160a01b038916600090815260088701825260408082208483529092522054865187908490811061239f5761239f613047565b60200260200101818152505061240f565b60405162461bcd60e51b815260206004820152602e60248201527f426574206461746120636f72727570746564206f7220756e696e697469616c6960448201526d3d32b2103132ba103337bab7321760911b6064820152608401610a2f565b506001016122f5565b505050509250929050565b60008181526003602052604081209061243d600d83015490565b6001600160401b0381111561245457612454612c2b565b60405190808252806020026020018201604052801561247d578160200160208202803683370190505b5090506000805b600d8401548110156124da5760008181526006850160205260409020600381015484518590859081106124b9576124b9613047565b6020908102919091010152826124ce8161302e565b93505050600101612484565b5060048301546000906001600160401b038111156124fa576124fa612c2b565b604051908082528060200260200182016040528015612523578160200160208202803683370190505b5090506000805b60048601548110156125e257600086600401828154811061254d5761254d613047565b906000526020600020015490506000805b86811015612597578288828151811061257957612579613047565b60200260200101510361258f5760019150612597565b60010161255e565b5080156125ce57818585815181106125b1576125b1613047565b6020908102919091010152836125c68161302e565b9450506125d8565b6125d88983612834565b505060010161252a565b50806001600160401b038111156125fb576125fb612c2b565b604051908082528060200260200182016040528015612624578160200160208202803683370190505b50805161263b91600488019160209091019061294e565b5060005b8181101561268a5782818151811061265957612659613047565b602002602001015186600401828154811061267657612676613047565b60009182526020909120015560010161263f565b50505050505050565b600082815260046020526040812081805b825481101561282b5760065483546000916001600160a01b03169063d05dcc6a908690859081106126d7576126d7613047565b90600052602060002001546040518263ffffffff1660e01b815260040161270091815260200190565b602060405180830381865afa15801561271d573d6000803e3d6000fd5b505050506040513d601f19601f8201168201806040525081019061274191906130ad565b600654604051634649481360e01b815260048101839052919250600091829182916001600160a01b0390911690634649481390602401608060405180830381865afa158015612794573d6000803e3d6000fd5b505050506040513d601f19601f820116820180604052508101906127b891906132a4565b91955093509150600190508960018111156127d5576127d5612bcd565b036127f5576127e4818461309a565b6127ee908761309a565b955061281b565b600089600181111561280957612809612bcd565b0361281b57612818828761309a565b95505b5050600190920191506126a49050565b50949350505050565b6000828152600360205260408120905b600083815260046020526040902054811015612919576006546000848152600460205260409020600181015481546001600160a01b03938416936323b872dd933093909116918690811061289a5761289a613047565b6000918252602090912001546040516001600160e01b031960e086901b1681526001600160a01b0393841660048201529290911660248301526044820152606401600060405180830381600087803b1580156128f557600080fd5b505af1158015612909573d6000803e3d6000fd5b5050600190920191506128449050565b5060009182526005810160209081526040808420805460ff19169055600b83018252808420849055600c909201905281205550565b828054828255906000526020600020908101928215612989579160200282015b8281111561298957825182559160200191906001019061296e565b50612995929150612999565b5090565b5b80821115612995576000815560010161299a565b6000602082840312156129c057600080fd5b5035919050565b6000815180845260005b818110156129ed576020818501810151868301820152016129d1565b506000602082860101526020601f19601f83011685010191505092915050565b600081518084526020840193506020830160005b82811015612a3f578151865260209586019590910190600101612a21565b5093949350505050565b606081526000612a5c60608301866129c7565b8281036020840152612a6e8186612a0d565b91505060018060a01b0383166040830152949350505050565b6001600160a01b0381168114612a9c57600080fd5b50565b600060208284031215612ab157600080fd5b8135612abc81612a87565b9392505050565b600082825180855260208501945060208160051b8301016020850160005b83811015612b1357601f19858403018852612afd8383516129c7565b6020988901989093509190910190600101612ae1565b50909695505050505050565b606081526000612b326060830186612a0d565b8281036020840152612b448186612ac3565b9050828103604084015280845180835260208301915060208160051b8401016020870160005b83811015612b9c57601f19868403018552612b86838351612a0d565b6020958601959093509190910190600101612b6a565b50909998505050505050505050565b60008060408385031215612bbe57600080fd5b50508035926020909101359150565b634e487b7160e01b600052602160045260246000fd5b60028110612bf357612bf3612bcd565b9052565b600060a082019050868252856020830152846040830152836060830152612c216080830184612be3565b9695505050505050565b634e487b7160e01b600052604160045260246000fd5b60008060008060808587031215612c5757600080fd5b8435612c6281612a87565b93506020850135612c7281612a87565b92506040850135915060608501356001600160401b03811115612c9457600080fd5b8501601f81018713612ca557600080fd5b80356001600160401b03811115612cbe57612cbe612c2b565b604051601f8201601f19908116603f011681016001600160401b0381118282101715612cec57612cec612c2b565b604052818152828201602001891015612d0457600080fd5b8160208401602083013760006020838301015280935050505092959194509250565b6001600160a01b0383168152604060208201819052600090612d4a908301846129c7565b949350505050565b60078110612bf357612bf3612bcd565b858152612d726020820186612d52565b83604082015260a060608201526000612d8e60a0830185612a0d565b90508260808301529695505050505050565b606081526000612db36060830186612a0d565b8281036020840152612dc58186612ac3565b83810360408501528451808252602080870193509091019060005b81811015612e075783516001600160a01b0316835260209384019390920191600101612de0565b5090979650505050505050565b60008083601f840112612e2657600080fd5b5081356001600160401b03811115612e3d57600080fd5b602083019150836020828501011115611c7757600080fd5b60008060008060408587031215612e6b57600080fd5b84356001600160401b03811115612e8157600080fd5b8501601f81018713612e9257600080fd5b80356001600160401b03811115612ea857600080fd5b8760208260051b8401011115612ebd57600080fd5b6020918201955093508501356001600160401b03811115612edd57600080fd5b612ee987828801612e14565b95989497509550505050565b608081526000612f086080830187612a0d565b8281036020840152612f1a8187612ac3565b90508281036040840152612f2e8186612a0d565b90508281036060840152612f428185612a0d565b979650505050505050565b858152602081018590526040810184905260a08101612f6f6060830185612d52565b825160808301529695505050505050565b60008060408385031215612f9357600080fd5b823591506020830135612fa581612a87565b809150509250929050565b604081526000612fc36040830185612a0d565b8281036020840152612fd58185612a0d565b95945050505050565b600181811c90821680612ff257607f821691505b60208210810361301257634e487b7160e01b600052602260045260246000fd5b50919050565b634e487b7160e01b600052601160045260246000fd5b60006001820161304057613040613018565b5060010190565b634e487b7160e01b600052603260045260246000fd5b634e487b7160e01b600052601260045260246000fd5b6000826130825761308261305d565b500490565b8181038181111561111657611116613018565b8082018082111561111657611116613018565b6000602082840312156130bf57600080fd5b5051919050565b6000826130d5576130d561305d565b500690565b808202811582820484141761111657611116613018565b6080815260006131046080830187612a0d565b82810360208401526131168187612a0d565b9050828103604084015261312a8186612a0d565b83810360608501528451808252602080870193509091019060005b8181101561316b57613158838551612be3565b6020938401939290920191600101613145565b509098975050505050505050565b60006020828403121561318b57600080fd5b8151612abc81612a87565b601f8211156131e057806000526020600020601f840160051c810160208510156131bd5750805b601f840160051c820191505b818110156131dd57600081556001016131c9565b50505b505050565b6001600160401b038311156131fc576131fc612c2b565b6132108361320a8354612fde565b83613196565b6000601f841160018114613244576000851561322c5750838201355b600019600387901b1c1916600186901b1783556131dd565b600083815260209020601f19861690835b828110156132755786850135825560209485019460019092019101613255565b50868210156132925760001960f88860031b161c19848701351681555b505060018560011b0183555050505050565b600080600080608085870312156132ba57600080fd5b50508251602084015160408501516060909501519196909550909250905056fea26469706673582212202d4fa61ab44ecc0d756cc05bfeda67ad640be55c70edd56f50995d4a5e05379a64736f6c634300081a0033",
    "linkReferences": {}
  },
  "methodIdentifiers": {
    "cosmoShips()": "4678f27b",
    "createTeam(uint256[],string)": "7df0b5db",
    "currentLeagueId()": "496963b1",
    "determineMatchOutcome(uint256,uint256)": "849851e1",
    "endBettingAndStartGame()": "d80eaf71",
    "endEnrollmentAndStartBetting()": "ac8cb21d",
    "enrollToLeague(uint256)": "885fb865",
    "getEnrolledTeams()": "5d7c9276",
    "getLeaderboard(uint256)": "a34b46fe",
    "getLeague(uint256)": "45516aaa",
    "getMatch(uint256,uint256)": "107cfe51",
    "getTeam(uint256)": "008e0f1b",
    "getTeamsByOwner(address)": "02e95e9c",
    "getUserBets(uint256,address)": "fa744dd3",
    "initializeLeague()": "6fb984ef",
    "isTeamEnrolled(uint256,uint256)": "39bb1e5c",
    "leagues(uint256)": "c648fefe",
    "onERC721Received(address,address,uint256,bytes)": "150b7a02",
    "placeBet(uint256,uint256)": "4afe62b5",
    "rng()": "d605787b",
    "runGameLeague()": "339c9f28",
    "setupMatches(uint256)": "236aa56b",
    "stakes(address)": "16934fc4",
    "teams(uint256)": "3ed2b77a"
  },
  "id": 43
}