{
  "abi": [
    {
      "type": "constructor",
      "inputs": [
        {
          "name": "_nftAddress",
          "type": "address",
          "internalType": "address"
        },
        {
          "name": "_rng",
          "type": "address",
          "internalType": "address"
        }
      ],
      "stateMutability": "nonpayable"
    },
    {
      "type": "function",
      "name": "cosmoShips",
      "inputs": [],
      "outputs": [
        {
          "name": "",
          "type": "address",
          "internalType": "contract CosmoShips"
        }
      ],
      "stateMutability": "view"
    },
    {
      "type": "function",
      "name": "createTeam",
      "inputs": [
        {
          "name": "nftIds",
          "type": "uint256[]",
          "internalType": "uint256[]"
        },
        {
          "name": "teamName",
          "type": "string",
          "internalType": "string"
        }
      ],
      "outputs": [
        {
          "name": "",
          "type": "uint256",
          "internalType": "uint256"
        }
      ],
      "stateMutability": "nonpayable"
    },
    {
      "type": "function",
      "name": "currentLeagueId",
      "inputs": [],
      "outputs": [
        {
          "name": "",
          "type": "uint256",
          "internalType": "uint256"
        }
      ],
      "stateMutability": "view"
    },
    {
      "type": "function",
      "name": "determineMatchOutcome",
      "inputs": [
        {
          "name": "leagueId",
          "type": "uint256",
          "internalType": "uint256"
        },
        {
          "name": "gameId",
          "type": "uint256",
          "internalType": "uint256"
        }
      ],
      "outputs": [
        {
          "name": "winner",
          "type": "uint256",
          "internalType": "uint256"
        },
        {
          "name": "loser",
          "type": "uint256",
          "internalType": "uint256"
        }
      ],
      "stateMutability": "nonpayable"
    },
    {
      "type": "function",
      "name": "endBettingAndStartGame",
      "inputs": [],
      "outputs": [],
      "stateMutability": "nonpayable"
    },
    {
      "type": "function",
      "name": "endEnrollmentAndStartBetting",
      "inputs": [],
      "outputs": [],
      "stateMutability": "nonpayable"
    },
    {
      "type": "function",
      "name": "enrollToLeague",
      "inputs": [
        {
          "name": "teamId",
          "type": "uint256",
          "internalType": "uint256"
        }
      ],
      "outputs": [],
      "stateMutability": "nonpayable"
    },
    {
      "type": "function",
      "name": "getEnrolledTeams",
      "inputs": [],
      "outputs": [
        {
          "name": "",
          "type": "uint256[]",
          "internalType": "uint256[]"
        },
        {
          "name": "",
          "type": "string[]",
          "internalType": "string[]"
        },
        {
          "name": "",
          "type": "address[]",
          "internalType": "address[]"
        }
      ],
      "stateMutability": "view"
    },
    {
      "type": "function",
      "name": "getLeaderboard",
      "inputs": [
        {
          "name": "leagueId",
          "type": "uint256",
          "internalType": "uint256"
        }
      ],
      "outputs": [
        {
          "name": "teamIds",
          "type": "uint256[]",
          "internalType": "uint256[]"
        },
        {
          "name": "teamNames",
          "type": "string[]",
          "internalType": "string[]"
        },
        {
          "name": "totalScores",
          "type": "uint256[]",
          "internalType": "uint256[]"
        },
        {
          "name": "gamesPlayed",
          "type": "uint256[]",
          "internalType": "uint256[]"
        }
      ],
      "stateMutability": "view"
    },
    {
      "type": "function",
      "name": "getLeague",
      "inputs": [
        {
          "name": "leagueId",
          "type": "uint256",
          "internalType": "uint256"
        }
      ],
      "outputs": [
        {
          "name": "id",
          "type": "uint256",
          "internalType": "uint256"
        },
        {
          "name": "state",
          "type": "uint8",
          "internalType": "enum GameLeague.LeagueState"
        },
        {
          "name": "prizePool",
          "type": "uint256",
          "internalType": "uint256"
        },
        {
          "name": "enrolledTeams",
          "type": "uint256[]",
          "internalType": "uint256[]"
        },
        {
          "name": "totalBetsInLeague",
          "type": "uint256",
          "internalType": "uint256"
        }
      ],
      "stateMutability": "view"
    },
    {
      "type": "function",
      "name": "getMatch",
      "inputs": [
        {
          "name": "leagueId",
          "type": "uint256",
          "internalType": "uint256"
        },
        {
          "name": "matchId",
          "type": "uint256",
          "internalType": "uint256"
        }
      ],
      "outputs": [
        {
          "name": "id",
          "type": "uint256",
          "internalType": "uint256"
        },
        {
          "name": "team1",
          "type": "uint256",
          "internalType": "uint256"
        },
        {
          "name": "team2",
          "type": "uint256",
          "internalType": "uint256"
        },
        {
          "name": "winner",
          "type": "uint256",
          "internalType": "uint256"
        },
        {
          "name": "gameType",
          "type": "uint8",
          "internalType": "enum GameLeague.GameType"
        }
      ],
      "stateMutability": "view"
    },
    {
      "type": "function",
      "name": "getTeam",
      "inputs": [
        {
          "name": "teamId",
          "type": "uint256",
          "internalType": "uint256"
        }
      ],
      "outputs": [
        {
          "name": "",
          "type": "string",
          "internalType": "string"
        },
        {
          "name": "",
          "type": "uint256[]",
          "internalType": "uint256[]"
        },
        {
          "name": "",
          "type": "address",
          "internalType": "address"
        }
      ],
      "stateMutability": "view"
    },
    {
      "type": "function",
      "name": "getTeamsByOwner",
      "inputs": [
        {
          "name": "owner",
          "type": "address",
          "internalType": "address"
        }
      ],
      "outputs": [
        {
          "name": "teamIds",
          "type": "uint256[]",
          "internalType": "uint256[]"
        },
        {
          "name": "teamNames",
          "type": "string[]",
          "internalType": "string[]"
        },
        {
          "name": "tokenIndexes",
          "type": "uint256[][]",
          "internalType": "uint256[][]"
        }
      ],
      "stateMutability": "view"
    },
    {
      "type": "function",
      "name": "getUserBets",
      "inputs": [
        {
          "name": "leagueId",
          "type": "uint256",
          "internalType": "uint256"
        },
        {
          "name": "user",
          "type": "address",
          "internalType": "address"
        }
      ],
      "outputs": [
        {
          "name": "teamIds",
          "type": "uint256[]",
          "internalType": "uint256[]"
        },
        {
          "name": "betAmounts",
          "type": "uint256[]",
          "internalType": "uint256[]"
        }
      ],
      "stateMutability": "view"
    },
    {
      "type": "function",
      "name": "initializeLeague",
      "inputs": [],
      "outputs": [],
      "stateMutability": "payable"
    },
    {
      "type": "function",
      "name": "isTeamEnrolled",
      "inputs": [
        {
          "name": "teamId",
          "type": "uint256",
          "internalType": "uint256"
        },
        {
          "name": "leagueId",
          "type": "uint256",
          "internalType": "uint256"
        }
      ],
      "outputs": [
        {
          "name": "",
          "type": "bool",
          "internalType": "bool"
        }
      ],
      "stateMutability": "view"
    },
    {
      "type": "function",
      "name": "leagues",
      "inputs": [
        {
          "name": "",
          "type": "uint256",
          "internalType": "uint256"
        }
      ],
      "outputs": [
        {
          "name": "id",
          "type": "uint256",
          "internalType": "uint256"
        },
        {
          "name": "prizePool",
          "type": "uint256",
          "internalType": "uint256"
        },
        {
          "name": "totalBetsInLeague",
          "type": "uint256",
          "internalType": "uint256"
        },
        {
          "name": "state",
          "type": "uint8",
          "internalType": "enum GameLeague.LeagueState"
        },
        {
          "name": "gameIdCounter",
          "type": "tuple",
          "internalType": "struct Counters.Counter",
          "components": [
            {
              "name": "_value",
              "type": "uint256",
              "internalType": "uint256"
            }
          ]
        }
      ],
      "stateMutability": "view"
    },
    {
      "type": "function",
      "name": "onERC721Received",
      "inputs": [
        {
          "name": "",
          "type": "address",
          "internalType": "address"
        },
        {
          "name": "",
          "type": "address",
          "internalType": "address"
        },
        {
          "name": "",
          "type": "uint256",
          "internalType": "uint256"
        },
        {
          "name": "",
          "type": "bytes",
          "internalType": "bytes"
        }
      ],
      "outputs": [
        {
          "name": "",
          "type": "bytes4",
          "internalType": "bytes4"
        }
      ],
      "stateMutability": "nonpayable"
    },
    {
      "type": "function",
      "name": "placeBet",
      "inputs": [
        {
          "name": "leagueId",
          "type": "uint256",
          "internalType": "uint256"
        },
        {
          "name": "teamId",
          "type": "uint256",
          "internalType": "uint256"
        },
        {
          "name": "amount",
          "type": "uint256",
          "internalType": "uint256"
        }
      ],
      "outputs": [],
      "stateMutability": "nonpayable"
    },
    {
      "type": "function",
      "name": "rng",
      "inputs": [],
      "outputs": [
        {
          "name": "",
          "type": "address",
          "internalType": "contract IRandomNumberGenerator"
        }
      ],
      "stateMutability": "view"
    },
    {
      "type": "function",
      "name": "runGameLeague",
      "inputs": [],
      "outputs": [],
      "stateMutability": "nonpayable"
    },
    {
      "type": "function",
      "name": "setupMatches",
      "inputs": [
        {
          "name": "seed",
          "type": "uint256",
          "internalType": "uint256"
        }
      ],
      "outputs": [],
      "stateMutability": "nonpayable"
    },
    {
      "type": "function",
      "name": "stakes",
      "inputs": [
        {
          "name": "",
          "type": "address",
          "internalType": "address"
        }
      ],
      "outputs": [
        {
          "name": "",
          "type": "uint256",
          "internalType": "uint256"
        }
      ],
      "stateMutability": "view"
    },
    {
      "type": "function",
      "name": "teams",
      "inputs": [
        {
          "name": "",
          "type": "uint256",
          "internalType": "uint256"
        }
      ],
      "outputs": [
        {
          "name": "owner",
          "type": "address",
          "internalType": "address"
        },
        {
          "name": "name",
          "type": "string",
          "internalType": "string"
        }
      ],
      "stateMutability": "view"
    },
    {
      "type": "event",
      "name": "GamesSetup",
      "inputs": [
        {
          "name": "leagueId",
          "type": "uint256",
          "indexed": true,
          "internalType": "uint256"
        },
        {
          "name": "gameIds",
          "type": "uint256[]",
          "indexed": false,
          "internalType": "uint256[]"
        },
        {
          "name": "team1s",
          "type": "uint256[]",
          "indexed": false,
          "internalType": "uint256[]"
        },
        {
          "name": "team2s",
          "type": "uint256[]",
          "indexed": false,
          "internalType": "uint256[]"
        },
        {
          "name": "gameTypes",
          "type": "uint8[]",
          "indexed": false,
          "internalType": "enum GameLeague.GameType[]"
        }
      ],
      "anonymous": false
    },
    {
      "type": "event",
      "name": "Leaderboard",
      "inputs": [
        {
          "name": "leagueId",
          "type": "uint256",
          "indexed": true,
          "internalType": "uint256"
        },
        {
          "name": "teamIds",
          "type": "uint256[]",
          "indexed": false,
          "internalType": "uint256[]"
        },
        {
          "name": "teamNames",
          "type": "string[]",
          "indexed": false,
          "internalType": "string[]"
        },
        {
          "name": "totalScores",
          "type": "uint256[]",
          "indexed": false,
          "internalType": "uint256[]"
        },
        {
          "name": "gamesPlayed",
          "type": "uint256[]",
          "indexed": false,
          "internalType": "uint256[]"
        }
      ],
      "anonymous": false
    }
  ],
  "bytecode": {
    "object": "0x6080604052348015600f57600080fd5b506040516133f73803806133f7833981016040819052602c916077565b600680546001600160a01b039384166001600160a01b0319918216179091556007805492909316911617905560a5565b80516001600160a01b0381168114607257600080fd5b919050565b60008060408385031215608957600080fd5b609083605c565b9150609c60208401605c565b90509250929050565b613343806100b46000396000f3fe60806040526004361061014a5760003560e01c80635d7c9276116100b6578063ac8cb21d1161006f578063ac8cb21d14610487578063c648fefe1461049c578063d605787b14610507578063d80eaf7114610527578063e71c96971461053c578063fa744dd31461055c57600080fd5b80635d7c9276146103b65780636fb984ef146103da5780637df0b5db146103e2578063849851e114610402578063885fb86514610437578063a34b46fe1461045757600080fd5b8063339c9f2811610108578063339c9f28146102c457806339bb1e5c146102d95780633ed2b77a1461030957806345516aaa146103375780634678f27b14610368578063496963b1146103a057600080fd5b80628e0f1b1461014f57806302e95e9c14610187578063107cfe51146101b6578063150b7a021461022357806316934fc414610267578063236aa56b146102a2575b600080fd5b34801561015b57600080fd5b5061016f61016a3660046129b5565b61058a565b60405161017e93929190612a50565b60405180910390f35b34801561019357600080fd5b506101a76101a2366004612aa6565b6106a4565b60405161017e93929190612b26565b3480156101c257600080fd5b506102126101d1366004612bb2565b60009182526003602081815260408085209385526006938401909152909220805460018201546002830154948301549290930154909492939260ff90911690565b60405161017e959493929190612bfe565b34801561022f57600080fd5b5061024e61023e366004612c48565b630a85bd0160e11b949350505050565b6040516001600160e01b0319909116815260200161017e565b34801561027357600080fd5b50610294610282366004612aa6565b60056020526000908152604090205481565b60405190815260200161017e565b3480156102ae57600080fd5b506102c26102bd3660046129b5565b61098e565b005b3480156102d057600080fd5b506102c261101a565b3480156102e557600080fd5b506102f96102f4366004612bb2565b611102565b604051901515815260200161017e565b34801561031557600080fd5b506103296103243660046129b5565b611129565b60405161017e929190612d2d565b34801561034357600080fd5b506103576103523660046129b5565b6111db565b60405161017e959493929190612d69565b34801561037457600080fd5b50600654610388906001600160a01b031681565b6040516001600160a01b03909116815260200161017e565b3480156103ac57600080fd5b5061029460025481565b3480156103c257600080fd5b506103cb611275565b60405161017e93929190612da7565b6102c26114bb565b3480156103ee57600080fd5b506102946103fd366004612e5c565b611581565b34801561040e57600080fd5b5061042261041d366004612bb2565b6117ea565b6040805192835260208301919091520161017e565b34801561044357600080fd5b506102c26104523660046129b5565b611a91565b34801561046357600080fd5b506104776104723660046129b5565b611ba7565b60405161017e9493929190612efc565b34801561049357600080fd5b506102c2611e61565b3480156104a857600080fd5b506104f66104b73660046129b5565b600360208181526000928352604092839020805460018201546002830154948301548651948501909652600d9092015483529390929160ff9091169085565b60405161017e959493929190612f54565b34801561051357600080fd5b50600754610388906001600160a01b031681565b34801561053357600080fd5b506102c2611f76565b34801561054857600080fd5b506102c2610557366004612f87565b612007565b34801561056857600080fd5b5061057c610577366004612fb3565b6121fb565b60405161017e929190612fe3565b600081815260046020526040812060018101546002820180546060948594909390929183916001600160a01b03169083906105c490613011565b80601f01602080910402602001604051908101604052809291908181526020018280546105f090613011565b801561063d5780601f106106125761010080835404028352916020019161063d565b820191906000526020600020905b81548152906001019060200180831161062057829003601f168201915b505050505092508180548060200260200160405190810160405280929190818152602001828054801561068f57602002820191906000526020600020905b81548152602001906001019080831161067b575b50505050509150935093509350509193909250565b606080606060006106b460015490565b90506000805b828110156106fc576000818152600460205260409020600101546001600160a01b038089169116036106f457816106f081613061565b9250505b6001016106ba565b50806001600160401b0381111561071557610715612c32565b60405190808252806020026020018201604052801561073e578160200160208202803683370190505b509450806001600160401b0381111561075957610759612c32565b60405190808252806020026020018201604052801561078c57816020015b60608152602001906001900390816107775790505b509350806001600160401b038111156107a7576107a7612c32565b6040519080825280602002602001820160405280156107da57816020015b60608152602001906001900390816107c55790505b5092506000905060005b82811015610984576000818152600460205260409020600101546001600160a01b0380891691160361097c57808683815181106108235761082361307a565b60200260200101818152505060046000828152602001908152602001600020600201805461085090613011565b80601f016020809104026020016040519081016040528092919081815260200182805461087c90613011565b80156108c95780601f1061089e576101008083540402835291602001916108c9565b820191906000526020600020905b8154815290600101906020018083116108ac57829003601f168201915b50505050508583815181106108e0576108e061307a565b60200260200101819052506004600082815260200190815260200160002060000180548060200260200160405190810160405280929190818152602001828054801561094b57602002820191906000526020600020905b815481526020019060010190808311610937575b50505050508483815181106109625761096261307a565b6020026020010181905250818061097890613061565b9250505b6001016107e4565b5050509193909250565b600254600081815260036020819052604090912090600382015460ff1660068111156109bc576109bc612bd4565b14806109e057506004600382015460ff1660068111156109de576109de612bd4565b145b610a455760405162461bcd60e51b815260206004820152602b60248201527f496e76616c6964206c656167756520737461746520666f722073657474696e6760448201526a207570206d61746368657360a81b60648201526084015b60405180910390fd5b60048101546002811015610aa65760405162461bcd60e51b815260206004820152602260248201527f4e6f7420656e6f756768207465616d7320746f20736574207570206d61746368604482015261657360f01b6064820152608401610a3c565b6000610ab36002836130a6565b6001600160401b03811115610aca57610aca612c32565b604051908082528060200260200182016040528015610af3578160200160208202803683370190505b5090506000610b036002846130a6565b6001600160401b03811115610b1a57610b1a612c32565b604051908082528060200260200182016040528015610b43578160200160208202803683370190505b5090506000610b536002856130a6565b6001600160401b03811115610b6a57610b6a612c32565b604051908082528060200260200182016040528015610b93578160200160208202803683370190505b5090506000610ba36002866130a6565b6001600160401b03811115610bba57610bba612c32565b604051908082528060200260200182016040528015610be3578160200160208202803683370190505b50905060005b85811015610d20576000610bfd82886130ba565b6007546001600160a01b031663b37217a4610c18858e6130cd565b6040518263ffffffff1660e01b8152600401610c3691815260200190565b602060405180830381865afa158015610c53573d6000803e3d6000fd5b505050506040513d601f19601f82011682018060405250810190610c7791906130e0565b610c8191906130f9565b610c8b90836130cd565b90506000886004018281548110610ca457610ca461307a565b90600052602060002001549050886004018381548110610cc657610cc661307a565b9060005260206000200154896004018381548110610ce657610ce661307a565b906000526020600020018190555080896004018481548110610d0a57610d0a61307a565b6000918252602090912001555050600101610be9565b5060005b610d2f6002876130a6565b811015610fd157600060048801610d4783600261310d565b81548110610d5757610d5761307a565b6000918252602082200154915060048901610d7384600261310d565b610d7e9060016130cd565b81548110610d8e57610d8e61307a565b9060005260206000200154905060006002600760009054906101000a90046001600160a01b03166001600160a01b031663b37217a4868f610dcf91906130cd565b6040518263ffffffff1660e01b8152600401610ded91815260200190565b602060405180830381865afa158015610e0a573d6000803e3d6000fd5b505050506040513d601f19601f82011682018060405250810190610e2e91906130e0565b610e3891906130f9565b15610e44576001610e47565b60005b90506000610e568b600d015490565b90506040518060e0016040528082815260200185815260200184815260200160001981526020016000815260200160008152602001836001811115610e9d57610e9d612bd4565b905260008281526006808e0160209081526040928390208451815590840151600180830191909155928401516002820155606084015160038201556080840151600482015560a0840151600582015560c084015191810180549193909160ff1916908381811115610f1057610f10612bd4565b02179055505050600d8b018054600101905580898681518110610f3557610f3561307a565b60200260200101818152505083888681518110610f5457610f5461307a565b60200260200101818152505082878681518110610f7357610f7361307a565b60200260200101818152505081868681518110610f9257610f9261307a565b60200260200101906001811115610fab57610fab612bd4565b90816001811115610fbe57610fbe612bd4565b9052505060019093019250610d24915050565b50867f555f2bee292e64c33376a230298bd6e5e9502ee97cd80ce83a2e3dad38835089858585856040516110089493929190613124565b60405180910390a25050505050505050565b60025460008181526003602052604090206004600382015460ff16600681111561104657611046612bd4565b146110935760405162461bcd60e51b815260206004820152601e60248201527f4c6561677565206973206e6f7420696e2072756e6e696e6720737461746500006044820152606401610a3c565b6004810154600110156110e7576110ae6102bd82600d015490565b60005b600d8201548110156110d1576110c783826117ea565b50506001016110b1565b506110db8261242a565b6000600d820155611093565b6003810180546006919060ff19166001835b02179055505050565b600081815260036020908152604080832085845260050190915290205460ff165b92915050565b600460205260009081526040902060018101546002820180546001600160a01b03909216929161115890613011565b80601f016020809104026020016040519081016040528092919081815260200182805461118490613011565b80156111d15780601f106111a6576101008083540402835291602001916111d1565b820191906000526020600020905b8154815290600101906020018083116111b457829003601f168201915b5050505050905082565b600081815260036020818152604080842080549381015460018201546002830154600484018054865181890281018901909752808752899889986060988a9897929660ff90931695929493909184919083018282801561125a57602002820191906000526020600020905b815481526020019060010190808311611246575b50505050509150955095509550955095505091939590929450565b606080606060006003600060025481526020019081526020016000206004018054806020026020016040519081016040528092919081815260200182805480156112de57602002820191906000526020600020905b8154815260200190600101908083116112ca575b505050505090506000815190506000816001600160401b0381111561130557611305612c32565b60405190808252806020026020018201604052801561133857816020015b60608152602001906001900390816113235790505b5090506000826001600160401b0381111561135557611355612c32565b60405190808252806020026020018201604052801561137e578160200160208202803683370190505b50905060005b838110156114ac576000600460008784815181106113a4576113a461307a565b6020026020010151815260200190815260200160002090508060020180546113cb90613011565b80601f01602080910402602001604051908101604052809291908181526020018280546113f790613011565b80156114445780601f1061141957610100808354040283529160200191611444565b820191906000526020600020905b81548152906001019060200180831161142757829003601f168201915b505050505084838151811061145b5761145b61307a565b6020908102919091010152600181015483516001600160a01b039091169084908490811061148b5761148b61307a565b6001600160a01b039092166020928302919091019091015250600101611384565b50929690955091935090915050565b60066002546000908152600360208190526040909120015460ff1660068111156114e7576114e7612bd4565b14806114f35750600254155b61153f5760405162461bcd60e51b815260206004820152601d60248201527f50726576696f7573206c6561677565206e6f7420636f6e636c756465640000006044820152606401610a3c565b6002805490600061154f83613061565b909155505060025460008181526003602081905260409091209182558101805460ff1916600190811790915534910155565b6000600384146115d35760405162461bcd60e51b815260206004820152601d60248201527f4d757374207374616b652065786163746c79207468726565204e4654730000006044820152606401610a3c565b60006115de60015490565b60008181526004602052604081209192505b868110156117ad5760065433906001600160a01b0316636352211e8a8a8581811061161d5761161d61307a565b905060200201356040518263ffffffff1660e01b815260040161164291815260200190565b602060405180830381865afa15801561165f573d6000803e3d6000fd5b505050506040513d601f19601f8201168201806040525081019061168391906131ac565b6001600160a01b0316146116d95760405162461bcd60e51b815260206004820152601860248201527f4e6f7420746865206f776e6572206f6620746865204e465400000000000000006044820152606401610a3c565b6006546001600160a01b03166323b872dd33308b8b868181106116fe576116fe61307a565b6040516001600160e01b031960e088901b1681526001600160a01b03958616600482015294909316602485015250602090910201356044820152606401600060405180830381600087803b15801561175557600080fd5b505af1158015611769573d6000803e3d6000fd5b50505050816000018888838181106117835761178361307a565b835460018082018655600095865260209586902092909502939093013592019190915550016115f0565b506001810180546001600160a01b03191633179055600281016117d1858783613218565b506117e0600180546001019055565b5095945050505050565b6000828152600360209081526040808320848452600680820190935290832060018101549281015484936118209160ff1661269a565b60048201556002810154600682015461183c919060ff1661269a565b6005820155604080516020810188905290810186905260009060600160408051808303601f19018152908290528051602090910120600754632cdc85e960e21b8352600483018290529092506000916001600160a01b039091169063b37217a490602401602060405180830381865afa1580156118bd573d6000803e3d6000fd5b505050506040513d601f19601f820116820180604052508101906118e191906130e0565b905060006118f06064836130f9565b9050836005015484600401541080156119095750601481105b15611937576119196014836130f9565b84600401600082825461192c91906130cd565b909155506119779050565b8360040154846005015410801561194e5750601481105b156119775761195e6014836130f9565b84600501600082825461197191906130cd565b90915550505b83600501548460040154111561199657600184015460038501556119da565b8360040154846005015411156119b557600284015460038501556119da565b83600201548460010154106119ce5783600201546119d4565b83600101545b60038501555b600484015460018501546000908152600b8701602052604081208054909190611a049084906130cd565b9091555050600584015460028501546000908152600b8701602052604081208054909190611a339084906130cd565b909155505060018401546000908152600c860160205260408120805491611a5983613061565b909155505060028401546000908152600c860160205260408120805491611a7f83613061565b919050555050505050505b9250929050565b60016002546000908152600360208190526040909120015460ff166006811115611abd57611abd612bd4565b14611b015760405162461bcd60e51b8152602060048201526014602482015273115b9c9bdb1b1b595b9d081a5cc818db1bdcd95960621b6044820152606401610a3c565b6000611b0c8261058a565b925050506001600160a01b0381163314611b595760405162461bcd60e51b815260206004820152600e60248201526d2737ba103a32b0b69037bbb732b960911b6044820152606401610a3c565b5060028054600090815260036020908152604080832060040180546001818101835591855283852001869055935483528083209483526005909401905291909120805460ff19169091179055565b60008181526003602052604090206004810154606091829182918291806001600160401b03811115611bdb57611bdb612c32565b604051908082528060200260200182016040528015611c04578160200160208202803683370190505b509550806001600160401b03811115611c1f57611c1f612c32565b604051908082528060200260200182016040528015611c5257816020015b6060815260200190600190039081611c3d5790505b509450806001600160401b03811115611c6d57611c6d612c32565b604051908082528060200260200182016040528015611c96578160200160208202803683370190505b509350806001600160401b03811115611cb157611cb1612c32565b604051908082528060200260200182016040528015611cda578160200160208202803683370190505b50925060005b81811015611e57576000836004018281548110611cff57611cff61307a565b9060005260206000200154905080888381518110611d1f57611d1f61307a565b602002602001018181525050600460008281526020019081526020016000206002018054611d4c90613011565b80601f0160208091040260200160405190810160405280929190818152602001828054611d7890613011565b8015611dc55780601f10611d9a57610100808354040283529160200191611dc5565b820191906000526020600020905b815481529060010190602001808311611da857829003601f168201915b5050505050878381518110611ddc57611ddc61307a565b602002602001018190525083600b01600082815260200190815260200160002054868381518110611e0f57611e0f61307a565b60200260200101818152505083600c01600082815260200190815260200160002054858381518110611e4357611e4361307a565b602090810291909101015250600101611ce0565b5050509193509193565b600280546000818152600360205260409020600481015491929091908110801590611e965750611e926002826130f9565b8116155b611ef05760405162461bcd60e51b815260206004820152602560248201527f4e756d626572206f66207465616d73206d757374206265206120706f7765722060448201526437b310191760d91b6064820152608401610a3c565b6001600383015460ff166006811115611f0b57611f0b612bd4565b14611f625760405162461bcd60e51b815260206004820152602160248201527f4c6561677565206973206e6f7420696e20656e726f6c6c6d656e7420737461746044820152606560f81b6064820152608401610a3c565b506003908101805460ff1916909117905550565b600254600081815260036020819052604090912090600382015460ff166006811115611fa457611fa4612bd4565b14611ff15760405162461bcd60e51b815260206004820152601e60248201527f4c6561677565206973206e6f7420696e2062657474696e6720737461746500006044820152606401610a3c565b6003810180546004919060ff19166001836110f9565b600083815260036020819052604090912090600382015460ff16600681111561203257612032612bd4565b146120775760405162461bcd60e51b815260206004820152601560248201527442657474696e67206973206e6f742061637469766560581b6044820152606401610a3c565b600082116120d15760405162461bcd60e51b815260206004820152602160248201527f42657420616d6f756e74206d7573742062652067726561746572207468616e206044820152600360fc1b6064820152608401610a3c565b600083815260058201602052604090205460ff1661213c5760405162461bcd60e51b815260206004820152602260248201527f5465616d20646f6573206e6f7420657869737420696e2074686973206c656167604482015261756560f01b6064820152608401610a3c565b33600090815260088201602090815260408083208684529091528120549003612184573360009081526009820160209081526040822080546001810182559083529120018390555b3360009081526008820160209081526040808320868452909152812080548492906121b09084906130cd565b90915550506000838152600782016020526040812080548492906121d59084906130cd565b92505081905550818160020160008282546121f091906130cd565b909155505050505050565b60008281526003602090815260408083206001600160a01b0385168452600981019092528083208054338552919093205460609384939290916122715760405162461bcd60e51b815260206004820152600e60248201526d139bc818995d1cc81c1b1858d95960921b6044820152606401610a3c565b806001600160401b0381111561228957612289612c32565b6040519080825280602002602001820160405280156122b2578160200160208202803683370190505b509450806001600160401b038111156122cd576122cd612c32565b6040519080825280602002602001820160405280156122f6578160200160208202803683370190505b50935060005b8181101561241f5760008382815481106123185761231861307a565b60009182526020808320909101546001600160a01b038b1683526008880182526040808420828552909252912054909150156123b757808783815181106123615761236161307a565b6020908102919091018101919091526001600160a01b03891660009081526008870182526040808220848352909252205486518790849081106123a6576123a661307a565b602002602001018181525050612416565b60405162461bcd60e51b815260206004820152602e60248201527f426574206461746120636f72727570746564206f7220756e696e697469616c6960448201526d3d32b2103132ba103337bab7321760911b6064820152608401610a3c565b506001016122fc565b505050509250929050565b600081815260036020526040812090612444600d83015490565b6001600160401b0381111561245b5761245b612c32565b604051908082528060200260200182016040528015612484578160200160208202803683370190505b5090506000805b600d8401548110156124e15760008181526006850160205260409020600381015484518590859081106124c0576124c061307a565b6020908102919091010152826124d581613061565b9350505060010161248b565b5060048301546000906001600160401b0381111561250157612501612c32565b60405190808252806020026020018201604052801561252a578160200160208202803683370190505b5090506000805b60048601548110156125e95760008660040182815481106125545761255461307a565b906000526020600020015490506000805b8681101561259e57828882815181106125805761258061307a565b602002602001015103612596576001915061259e565b600101612565565b5080156125d557818585815181106125b8576125b861307a565b6020908102919091010152836125cd81613061565b9450506125df565b6125df898361283b565b5050600101612531565b50806001600160401b0381111561260257612602612c32565b60405190808252806020026020018201604052801561262b578160200160208202803683370190505b508051612642916004880191602090910190612955565b5060005b81811015612691578281815181106126605761266061307a565b602002602001015186600401828154811061267d5761267d61307a565b600091825260209091200155600101612646565b50505050505050565b600082815260046020526040812081805b82548110156128325760065483546000916001600160a01b03169063d05dcc6a908690859081106126de576126de61307a565b90600052602060002001546040518263ffffffff1660e01b815260040161270791815260200190565b602060405180830381865afa158015612724573d6000803e3d6000fd5b505050506040513d601f19601f8201168201806040525081019061274891906130e0565b600654604051634649481360e01b815260048101839052919250600091829182916001600160a01b0390911690634649481390602401608060405180830381865afa15801561279b573d6000803e3d6000fd5b505050506040513d601f19601f820116820180604052508101906127bf91906132d7565b91955093509150600190508960018111156127dc576127dc612bd4565b036127fc576127eb81846130cd565b6127f590876130cd565b9550612822565b600089600181111561281057612810612bd4565b036128225761281f82876130cd565b95505b5050600190920191506126ab9050565b50949350505050565b6000828152600360205260408120905b600083815260046020526040902054811015612920576006546000848152600460205260409020600181015481546001600160a01b03938416936323b872dd93309390911691869081106128a1576128a161307a565b6000918252602090912001546040516001600160e01b031960e086901b1681526001600160a01b0393841660048201529290911660248301526044820152606401600060405180830381600087803b1580156128fc57600080fd5b505af1158015612910573d6000803e3d6000fd5b50506001909201915061284b9050565b5060009182526005810160209081526040808420805460ff19169055600b83018252808420849055600c909201905281205550565b828054828255906000526020600020908101928215612990579160200282015b82811115612990578251825591602001919060010190612975565b5061299c9291506129a0565b5090565b5b8082111561299c57600081556001016129a1565b6000602082840312156129c757600080fd5b5035919050565b6000815180845260005b818110156129f4576020818501810151868301820152016129d8565b506000602082860101526020601f19601f83011685010191505092915050565b600081518084526020840193506020830160005b82811015612a46578151865260209586019590910190600101612a28565b5093949350505050565b606081526000612a6360608301866129ce565b8281036020840152612a758186612a14565b91505060018060a01b0383166040830152949350505050565b6001600160a01b0381168114612aa357600080fd5b50565b600060208284031215612ab857600080fd5b8135612ac381612a8e565b9392505050565b600082825180855260208501945060208160051b8301016020850160005b83811015612b1a57601f19858403018852612b048383516129ce565b6020988901989093509190910190600101612ae8565b50909695505050505050565b606081526000612b396060830186612a14565b8281036020840152612b4b8186612aca565b9050828103604084015280845180835260208301915060208160051b8401016020870160005b83811015612ba357601f19868403018552612b8d838351612a14565b6020958601959093509190910190600101612b71565b50909998505050505050505050565b60008060408385031215612bc557600080fd5b50508035926020909101359150565b634e487b7160e01b600052602160045260246000fd5b60028110612bfa57612bfa612bd4565b9052565b600060a082019050868252856020830152846040830152836060830152612c286080830184612bea565b9695505050505050565b634e487b7160e01b600052604160045260246000fd5b60008060008060808587031215612c5e57600080fd5b8435612c6981612a8e565b93506020850135612c7981612a8e565b92506040850135915060608501356001600160401b03811115612c9b57600080fd5b8501601f81018713612cac57600080fd5b80356001600160401b03811115612cc557612cc5612c32565b604051601f8201601f19908116603f011681016001600160401b0381118282101715612cf357612cf3612c32565b604052818152828201602001891015612d0b57600080fd5b8160208401602083013760006020838301015280935050505092959194509250565b6001600160a01b0383168152604060208201819052600090612d51908301846129ce565b949350505050565b60078110612bfa57612bfa612bd4565b858152612d796020820186612d59565b83604082015260a060608201526000612d9560a0830185612a14565b90508260808301529695505050505050565b606081526000612dba6060830186612a14565b8281036020840152612dcc8186612aca565b83810360408501528451808252602080870193509091019060005b81811015612e0e5783516001600160a01b0316835260209384019390920191600101612de7565b5090979650505050505050565b60008083601f840112612e2d57600080fd5b5081356001600160401b03811115612e4457600080fd5b602083019150836020828501011115611a8a57600080fd5b60008060008060408587031215612e7257600080fd5b84356001600160401b03811115612e8857600080fd5b8501601f81018713612e9957600080fd5b80356001600160401b03811115612eaf57600080fd5b8760208260051b8401011115612ec457600080fd5b6020918201955093508501356001600160401b03811115612ee457600080fd5b612ef087828801612e1b565b95989497509550505050565b608081526000612f0f6080830187612a14565b8281036020840152612f218187612aca565b90508281036040840152612f358186612a14565b90508281036060840152612f498185612a14565b979650505050505050565b858152602081018590526040810184905260a08101612f766060830185612d59565b825160808301529695505050505050565b600080600060608486031215612f9c57600080fd5b505081359360208301359350604090920135919050565b60008060408385031215612fc657600080fd5b823591506020830135612fd881612a8e565b809150509250929050565b604081526000612ff66040830185612a14565b82810360208401526130088185612a14565b95945050505050565b600181811c9082168061302557607f821691505b60208210810361304557634e487b7160e01b600052602260045260246000fd5b50919050565b634e487b7160e01b600052601160045260246000fd5b6000600182016130735761307361304b565b5060010190565b634e487b7160e01b600052603260045260246000fd5b634e487b7160e01b600052601260045260246000fd5b6000826130b5576130b5613090565b500490565b818103818111156111235761112361304b565b808201808211156111235761112361304b565b6000602082840312156130f257600080fd5b5051919050565b60008261310857613108613090565b500690565b80820281158282048414176111235761112361304b565b6080815260006131376080830187612a14565b82810360208401526131498187612a14565b9050828103604084015261315d8186612a14565b83810360608501528451808252602080870193509091019060005b8181101561319e5761318b838551612bea565b6020938401939290920191600101613178565b509098975050505050505050565b6000602082840312156131be57600080fd5b8151612ac381612a8e565b601f82111561321357806000526020600020601f840160051c810160208510156131f05750805b601f840160051c820191505b8181101561321057600081556001016131fc565b50505b505050565b6001600160401b0383111561322f5761322f612c32565b6132438361323d8354613011565b836131c9565b6000601f841160018114613277576000851561325f5750838201355b600019600387901b1c1916600186901b178355613210565b600083815260209020601f19861690835b828110156132a85786850135825560209485019460019092019101613288565b50868210156132c55760001960f88860031b161c19848701351681555b505060018560011b0183555050505050565b600080600080608085870312156132ed57600080fd5b50508251602084015160408501516060909501519196909550909250905056fea2646970667358221220e45c24666698c91a9ff9bb5a2478438e012aa1dfc0904ea8ed075298d26445bb64736f6c634300081a0033",
    "linkReferences": {}
  },
  "methodIdentifiers": {
    "cosmoShips()": "4678f27b",
    "createTeam(uint256[],string)": "7df0b5db",
    "currentLeagueId()": "496963b1",
    "determineMatchOutcome(uint256,uint256)": "849851e1",
    "endBettingAndStartGame()": "d80eaf71",
    "endEnrollmentAndStartBetting()": "ac8cb21d",
    "enrollToLeague(uint256)": "885fb865",
    "getEnrolledTeams()": "5d7c9276",
    "getLeaderboard(uint256)": "a34b46fe",
    "getLeague(uint256)": "45516aaa",
    "getMatch(uint256,uint256)": "107cfe51",
    "getTeam(uint256)": "008e0f1b",
    "getTeamsByOwner(address)": "02e95e9c",
    "getUserBets(uint256,address)": "fa744dd3",
    "initializeLeague()": "6fb984ef",
    "isTeamEnrolled(uint256,uint256)": "39bb1e5c",
    "leagues(uint256)": "c648fefe",
    "onERC721Received(address,address,uint256,bytes)": "150b7a02",
    "placeBet(uint256,uint256,uint256)": "e71c9697",
    "rng()": "d605787b",
    "runGameLeague()": "339c9f28",
    "setupMatches(uint256)": "236aa56b",
    "stakes(address)": "16934fc4",
    "teams(uint256)": "3ed2b77a"
  },
  "id": 42
}